{
	"nft-staking-with-infinite-rewards/nft-staking-with-infinite-rewards.sol": {
		"NFTStakingPerToken": {
			"abi": [
				{
					"inputs": [
						{
							"internalType": "address",
							"name": "nftAddress",
							"type": "address"
						},
						{
							"internalType": "address",
							"name": "rewardTokenAddress",
							"type": "address"
						},
						{
							"internalType": "address",
							"name": "rewardWalletAddress",
							"type": "address"
						},
						{
							"internalType": "uint256",
							"name": "rewardRate",
							"type": "uint256"
						}
					],
					"stateMutability": "nonpayable",
					"type": "constructor"
				},
				{
					"inputs": [
						{
							"internalType": "address",
							"name": "account",
							"type": "address"
						}
					],
					"name": "available",
					"outputs": [
						{
							"internalType": "uint256",
							"name": "",
							"type": "uint256"
						}
					],
					"stateMutability": "view",
					"type": "function"
				},
				{
					"inputs": [
						{
							"internalType": "address",
							"name": "",
							"type": "address"
						}
					],
					"name": "balanceOf",
					"outputs": [
						{
							"internalType": "uint256",
							"name": "",
							"type": "uint256"
						}
					],
					"stateMutability": "view",
					"type": "function"
				},
				{
					"inputs": [
						{
							"internalType": "address",
							"name": "",
							"type": "address"
						}
					],
					"name": "lastUpdateTime",
					"outputs": [
						{
							"internalType": "uint256",
							"name": "",
							"type": "uint256"
						}
					],
					"stateMutability": "view",
					"type": "function"
				},
				{
					"inputs": [],
					"name": "nft",
					"outputs": [
						{
							"internalType": "contract IERC721",
							"name": "",
							"type": "address"
						}
					],
					"stateMutability": "view",
					"type": "function"
				},
				{
					"inputs": [
						{
							"internalType": "address",
							"name": "",
							"type": "address"
						},
						{
							"internalType": "address",
							"name": "from",
							"type": "address"
						},
						{
							"internalType": "uint256",
							"name": "tokenId",
							"type": "uint256"
						},
						{
							"internalType": "bytes",
							"name": "",
							"type": "bytes"
						}
					],
					"name": "onERC721Received",
					"outputs": [
						{
							"internalType": "bytes4",
							"name": "",
							"type": "bytes4"
						}
					],
					"stateMutability": "nonpayable",
					"type": "function"
				},
				{
					"inputs": [],
					"name": "redeem",
					"outputs": [],
					"stateMutability": "nonpayable",
					"type": "function"
				},
				{
					"inputs": [],
					"name": "rewardPerTokenPerDay",
					"outputs": [
						{
							"internalType": "uint256",
							"name": "",
							"type": "uint256"
						}
					],
					"stateMutability": "view",
					"type": "function"
				},
				{
					"inputs": [],
					"name": "rewardToken",
					"outputs": [
						{
							"internalType": "contract IERC20",
							"name": "",
							"type": "address"
						}
					],
					"stateMutability": "view",
					"type": "function"
				},
				{
					"inputs": [],
					"name": "rewardWallet",
					"outputs": [
						{
							"internalType": "address",
							"name": "",
							"type": "address"
						}
					],
					"stateMutability": "view",
					"type": "function"
				},
				{
					"inputs": [
						{
							"internalType": "uint256",
							"name": "tokenId",
							"type": "uint256"
						}
					],
					"name": "stake",
					"outputs": [],
					"stateMutability": "nonpayable",
					"type": "function"
				},
				{
					"inputs": [
						{
							"internalType": "uint256",
							"name": "tokenId",
							"type": "uint256"
						}
					],
					"name": "withdraw",
					"outputs": [],
					"stateMutability": "nonpayable",
					"type": "function"
				}
			],
			"devdoc": {
				"author": "Breakthrough Labs Inc.",
				"details": "NFT staking contract that rewards stakers with an exact number of ERC20 tokens per day. On deployment, the owner specifies a daily reward rate, and an address that tokens will be pulled from. Neither of these can be changed. Each staked NFT receives the same number of tokens every day. The per NFT rate stays the same even when the number of staked NFTs increases/decreases. A common usecase is for blockchain-based games, where each NFT rewards a certain number of lives per day.",
				"kind": "dev",
				"methods": {
					"available(address)": {
						"details": "returns the number of reward tokens available for an address",
						"params": {
							"account": "account"
						}
					},
					"constructor": {
						"params": {
							"nftAddress": "Staked NFT Address",
							"rewardRate": "# of tokens per staked NFT per day | precision:18",
							"rewardTokenAddress": "Reward Token Address",
							"rewardWalletAddress": "Wallet that holds rewards to be paid out"
						}
					},
					"redeem()": {
						"details": "redeems all of a user's reward tokens."
					},
					"stake(uint256)": {
						"details": "stakes a specific tokenID",
						"params": {
							"tokenId": "tokenId"
						}
					},
					"withdraw(uint256)": {
						"details": "withdraws a token from the staking contract",
						"params": {
							"tokenId": "tokenId"
						}
					}
				},
				"title": "NFT Staking with Infinite Rewards",
				"version": 1
			},
			"evm": {
				"assembly": "    /* \"nft-staking-with-infinite-rewards/nft-staking-with-infinite-rewards.sol\":2362:5549  contract NFTStakingPerToken is Context, IERC721Receiver {\r... */\n  mstore(0x40, 0x80)\n    /* \"nft-staking-with-infinite-rewards/nft-staking-with-infinite-rewards.sol\":3044:3380  constructor(\r... */\n  callvalue\n  dup1\n  iszero\n  tag_1\n  jumpi\n  0x00\n  dup1\n  revert\ntag_1:\n  pop\n  mload(0x40)\n  sub(codesize, bytecodeSize)\n  dup1\n  bytecodeSize\n  dup4\n  codecopy\n  dup2\n  dup2\n  add\n  0x40\n  mstore\n  dup2\n  add\n  swap1\n  tag_2\n  swap2\n  swap1\n  tag_3\n  jump\t// in\ntag_2:\n    /* \"nft-staking-with-infinite-rewards/nft-staking-with-infinite-rewards.sol\":3221:3231  nftAddress */\n  dup4\n    /* \"nft-staking-with-infinite-rewards/nft-staking-with-infinite-rewards.sol\":3207:3210  nft */\n  0x00\n  dup1\n    /* \"nft-staking-with-infinite-rewards/nft-staking-with-infinite-rewards.sol\":3207:3232  nft = IERC721(nftAddress) */\n  0x0100\n  exp\n  dup2\n  sload\n  dup2\n  0xffffffffffffffffffffffffffffffffffffffff\n  mul\n  not\n  and\n  swap1\n  dup4\n  0xffffffffffffffffffffffffffffffffffffffff\n  and\n  mul\n  or\n  swap1\n  sstore\n  pop\n    /* \"nft-staking-with-infinite-rewards/nft-staking-with-infinite-rewards.sol\":3264:3282  rewardTokenAddress */\n  dup3\n    /* \"nft-staking-with-infinite-rewards/nft-staking-with-infinite-rewards.sol\":3243:3254  rewardToken */\n  0x01\n  0x00\n    /* \"nft-staking-with-infinite-rewards/nft-staking-with-infinite-rewards.sol\":3243:3283  rewardToken = IERC20(rewardTokenAddress) */\n  0x0100\n  exp\n  dup2\n  sload\n  dup2\n  0xffffffffffffffffffffffffffffffffffffffff\n  mul\n  not\n  and\n  swap1\n  dup4\n  0xffffffffffffffffffffffffffffffffffffffff\n  and\n  mul\n  or\n  swap1\n  sstore\n  pop\n    /* \"nft-staking-with-infinite-rewards/nft-staking-with-infinite-rewards.sol\":3309:3328  rewardWalletAddress */\n  dup2\n    /* \"nft-staking-with-infinite-rewards/nft-staking-with-infinite-rewards.sol\":3294:3306  rewardWallet */\n  0x02\n  0x00\n    /* \"nft-staking-with-infinite-rewards/nft-staking-with-infinite-rewards.sol\":3294:3328  rewardWallet = rewardWalletAddress */\n  0x0100\n  exp\n  dup2\n  sload\n  dup2\n  0xffffffffffffffffffffffffffffffffffffffff\n  mul\n  not\n  and\n  swap1\n  dup4\n  0xffffffffffffffffffffffffffffffffffffffff\n  and\n  mul\n  or\n  swap1\n  sstore\n  pop\n    /* \"nft-staking-with-infinite-rewards/nft-staking-with-infinite-rewards.sol\":3362:3372  rewardRate */\n  dup1\n    /* \"nft-staking-with-infinite-rewards/nft-staking-with-infinite-rewards.sol\":3339:3359  rewardPerTokenPerDay */\n  0x03\n    /* \"nft-staking-with-infinite-rewards/nft-staking-with-infinite-rewards.sol\":3339:3372  rewardPerTokenPerDay = rewardRate */\n  dup2\n  swap1\n  sstore\n  pop\n    /* \"nft-staking-with-infinite-rewards/nft-staking-with-infinite-rewards.sol\":3044:3380  constructor(\r... */\n  pop\n  pop\n  pop\n  pop\n    /* \"nft-staking-with-infinite-rewards/nft-staking-with-infinite-rewards.sol\":2362:5549  contract NFTStakingPerToken is Context, IERC721Receiver {\r... */\n  jump(tag_6)\n    /* \"#utility.yul\":7:150   */\ntag_8:\n  0x00\n    /* \"#utility.yul\":95:101   */\n  dup2\n    /* \"#utility.yul\":89:102   */\n  mload\n    /* \"#utility.yul\":80:102   */\n  swap1\n  pop\n    /* \"#utility.yul\":111:144   */\n  tag_10\n    /* \"#utility.yul\":138:143   */\n  dup2\n    /* \"#utility.yul\":111:144   */\n  tag_11\n  jump\t// in\ntag_10:\n    /* \"#utility.yul\":70:150   */\n  swap3\n  swap2\n  pop\n  pop\n  jump\t// out\n    /* \"#utility.yul\":156:299   */\ntag_12:\n  0x00\n    /* \"#utility.yul\":244:250   */\n  dup2\n    /* \"#utility.yul\":238:251   */\n  mload\n    /* \"#utility.yul\":229:251   */\n  swap1\n  pop\n    /* \"#utility.yul\":260:293   */\n  tag_14\n    /* \"#utility.yul\":287:292   */\n  dup2\n    /* \"#utility.yul\":260:293   */\n  tag_15\n  jump\t// in\ntag_14:\n    /* \"#utility.yul\":219:299   */\n  swap3\n  swap2\n  pop\n  pop\n  jump\t// out\n    /* \"#utility.yul\":305:1058   */\ntag_3:\n  0x00\n  dup1\n  0x00\n  dup1\n    /* \"#utility.yul\":475:478   */\n  0x80\n    /* \"#utility.yul\":463:472   */\n  dup6\n    /* \"#utility.yul\":454:461   */\n  dup8\n    /* \"#utility.yul\":450:473   */\n  sub\n    /* \"#utility.yul\":446:479   */\n  slt\n    /* \"#utility.yul\":443:445   */\n  iszero\n  tag_17\n  jumpi\n    /* \"#utility.yul\":492:493   */\n  0x00\n    /* \"#utility.yul\":489:490   */\n  dup1\n    /* \"#utility.yul\":482:494   */\n  revert\n    /* \"#utility.yul\":443:445   */\ntag_17:\n    /* \"#utility.yul\":535:536   */\n  0x00\n    /* \"#utility.yul\":560:624   */\n  tag_18\n    /* \"#utility.yul\":616:623   */\n  dup8\n    /* \"#utility.yul\":607:613   */\n  dup3\n    /* \"#utility.yul\":596:605   */\n  dup9\n    /* \"#utility.yul\":592:614   */\n  add\n    /* \"#utility.yul\":560:624   */\n  tag_8\n  jump\t// in\ntag_18:\n    /* \"#utility.yul\":550:624   */\n  swap5\n  pop\n    /* \"#utility.yul\":506:634   */\n  pop\n    /* \"#utility.yul\":673:675   */\n  0x20\n    /* \"#utility.yul\":699:763   */\n  tag_19\n    /* \"#utility.yul\":755:762   */\n  dup8\n    /* \"#utility.yul\":746:752   */\n  dup3\n    /* \"#utility.yul\":735:744   */\n  dup9\n    /* \"#utility.yul\":731:753   */\n  add\n    /* \"#utility.yul\":699:763   */\n  tag_8\n  jump\t// in\ntag_19:\n    /* \"#utility.yul\":689:763   */\n  swap4\n  pop\n    /* \"#utility.yul\":644:773   */\n  pop\n    /* \"#utility.yul\":812:814   */\n  0x40\n    /* \"#utility.yul\":838:902   */\n  tag_20\n    /* \"#utility.yul\":894:901   */\n  dup8\n    /* \"#utility.yul\":885:891   */\n  dup3\n    /* \"#utility.yul\":874:883   */\n  dup9\n    /* \"#utility.yul\":870:892   */\n  add\n    /* \"#utility.yul\":838:902   */\n  tag_8\n  jump\t// in\ntag_20:\n    /* \"#utility.yul\":828:902   */\n  swap3\n  pop\n    /* \"#utility.yul\":783:912   */\n  pop\n    /* \"#utility.yul\":951:953   */\n  0x60\n    /* \"#utility.yul\":977:1041   */\n  tag_21\n    /* \"#utility.yul\":1033:1040   */\n  dup8\n    /* \"#utility.yul\":1024:1030   */\n  dup3\n    /* \"#utility.yul\":1013:1022   */\n  dup9\n    /* \"#utility.yul\":1009:1031   */\n  add\n    /* \"#utility.yul\":977:1041   */\n  tag_12\n  jump\t// in\ntag_21:\n    /* \"#utility.yul\":967:1041   */\n  swap2\n  pop\n    /* \"#utility.yul\":922:1051   */\n  pop\n    /* \"#utility.yul\":433:1058   */\n  swap3\n  swap6\n  swap2\n  swap5\n  pop\n  swap3\n  pop\n  jump\t// out\n    /* \"#utility.yul\":1064:1160   */\ntag_22:\n  0x00\n    /* \"#utility.yul\":1130:1154   */\n  tag_24\n    /* \"#utility.yul\":1148:1153   */\n  dup3\n    /* \"#utility.yul\":1130:1154   */\n  tag_25\n  jump\t// in\ntag_24:\n    /* \"#utility.yul\":1119:1154   */\n  swap1\n  pop\n    /* \"#utility.yul\":1109:1160   */\n  swap2\n  swap1\n  pop\n  jump\t// out\n    /* \"#utility.yul\":1166:1292   */\ntag_25:\n  0x00\n    /* \"#utility.yul\":1243:1285   */\n  0xffffffffffffffffffffffffffffffffffffffff\n    /* \"#utility.yul\":1236:1241   */\n  dup3\n    /* \"#utility.yul\":1232:1286   */\n  and\n    /* \"#utility.yul\":1221:1286   */\n  swap1\n  pop\n    /* \"#utility.yul\":1211:1292   */\n  swap2\n  swap1\n  pop\n  jump\t// out\n    /* \"#utility.yul\":1298:1375   */\ntag_27:\n  0x00\n    /* \"#utility.yul\":1364:1369   */\n  dup2\n    /* \"#utility.yul\":1353:1369   */\n  swap1\n  pop\n    /* \"#utility.yul\":1343:1375   */\n  swap2\n  swap1\n  pop\n  jump\t// out\n    /* \"#utility.yul\":1381:1503   */\ntag_11:\n    /* \"#utility.yul\":1454:1478   */\n  tag_30\n    /* \"#utility.yul\":1472:1477   */\n  dup2\n    /* \"#utility.yul\":1454:1478   */\n  tag_22\n  jump\t// in\ntag_30:\n    /* \"#utility.yul\":1447:1452   */\n  dup2\n    /* \"#utility.yul\":1444:1479   */\n  eq\n    /* \"#utility.yul\":1434:1436   */\n  tag_31\n  jumpi\n    /* \"#utility.yul\":1493:1494   */\n  0x00\n    /* \"#utility.yul\":1490:1491   */\n  dup1\n    /* \"#utility.yul\":1483:1495   */\n  revert\n    /* \"#utility.yul\":1434:1436   */\ntag_31:\n    /* \"#utility.yul\":1424:1503   */\n  pop\n  jump\t// out\n    /* \"#utility.yul\":1509:1631   */\ntag_15:\n    /* \"#utility.yul\":1582:1606   */\n  tag_33\n    /* \"#utility.yul\":1600:1605   */\n  dup2\n    /* \"#utility.yul\":1582:1606   */\n  tag_27\n  jump\t// in\ntag_33:\n    /* \"#utility.yul\":1575:1580   */\n  dup2\n    /* \"#utility.yul\":1572:1607   */\n  eq\n    /* \"#utility.yul\":1562:1564   */\n  tag_34\n  jumpi\n    /* \"#utility.yul\":1621:1622   */\n  0x00\n    /* \"#utility.yul\":1618:1619   */\n  dup1\n    /* \"#utility.yul\":1611:1623   */\n  revert\n    /* \"#utility.yul\":1562:1564   */\ntag_34:\n    /* \"#utility.yul\":1552:1631   */\n  pop\n  jump\t// out\n    /* \"nft-staking-with-infinite-rewards/nft-staking-with-infinite-rewards.sol\":2362:5549  contract NFTStakingPerToken is Context, IERC721Receiver {\r... */\ntag_6:\n  dataSize(sub_0)\n  dup1\n  dataOffset(sub_0)\n  0x00\n  codecopy\n  0x00\n  return\nstop\n\nsub_0: assembly {\n        /* \"nft-staking-with-infinite-rewards/nft-staking-with-infinite-rewards.sol\":2362:5549  contract NFTStakingPerToken is Context, IERC721Receiver {\r... */\n      mstore(0x40, 0x80)\n      callvalue\n      dup1\n      iszero\n      tag_1\n      jumpi\n      0x00\n      dup1\n      revert\n    tag_1:\n      pop\n      jumpi(tag_2, lt(calldatasize, 0x04))\n      shr(0xe0, calldataload(0x00))\n      dup1\n      0x47ccca02\n      gt\n      tag_14\n      jumpi\n      dup1\n      0x47ccca02\n      eq\n      tag_8\n      jumpi\n      dup1\n      0x70a08231\n      eq\n      tag_9\n      jumpi\n      dup1\n      0xa694fc3a\n      eq\n      tag_10\n      jumpi\n      dup1\n      0xbe040fb0\n      eq\n      tag_11\n      jumpi\n      dup1\n      0xf7c618c1\n      eq\n      tag_12\n      jumpi\n      dup1\n      0xfb75b2c7\n      eq\n      tag_13\n      jumpi\n      jump(tag_2)\n    tag_14:\n      dup1\n      0x10098ad5\n      eq\n      tag_3\n      jumpi\n      dup1\n      0x150b7a02\n      eq\n      tag_4\n      jumpi\n      dup1\n      0x2ce9aead\n      eq\n      tag_5\n      jumpi\n      dup1\n      0x2d6a1fa6\n      eq\n      tag_6\n      jumpi\n      dup1\n      0x2e1a7d4d\n      eq\n      tag_7\n      jumpi\n    tag_2:\n      0x00\n      dup1\n      revert\n        /* \"nft-staking-with-infinite-rewards/nft-staking-with-infinite-rewards.sol\":3671:3980  function available(address account) public view returns (uint256) {\r... */\n    tag_3:\n      tag_15\n      0x04\n      dup1\n      calldatasize\n      sub\n      dup2\n      add\n      swap1\n      tag_16\n      swap2\n      swap1\n      tag_17\n      jump\t// in\n    tag_16:\n      tag_18\n      jump\t// in\n    tag_15:\n      mload(0x40)\n      tag_19\n      swap2\n      swap1\n      tag_20\n      jump\t// in\n    tag_19:\n      mload(0x40)\n      dup1\n      swap2\n      sub\n      swap1\n      return\n        /* \"nft-staking-with-infinite-rewards/nft-staking-with-infinite-rewards.sol\":5238:5546  function  onERC721Received(\r... */\n    tag_4:\n      tag_21\n      0x04\n      dup1\n      calldatasize\n      sub\n      dup2\n      add\n      swap1\n      tag_22\n      swap2\n      swap1\n      tag_23\n      jump\t// in\n    tag_22:\n      tag_24\n      jump\t// in\n    tag_21:\n      mload(0x40)\n      tag_25\n      swap2\n      swap1\n      tag_26\n      jump\t// in\n    tag_25:\n      mload(0x40)\n      dup1\n      swap2\n      sub\n      swap1\n      return\n        /* \"nft-staking-with-infinite-rewards/nft-staking-with-infinite-rewards.sol\":2666:2715  mapping(address => uint256) public lastUpdateTime */\n    tag_5:\n      tag_27\n      0x04\n      dup1\n      calldatasize\n      sub\n      dup2\n      add\n      swap1\n      tag_28\n      swap2\n      swap1\n      tag_17\n      jump\t// in\n    tag_28:\n      tag_29\n      jump\t// in\n    tag_27:\n      mload(0x40)\n      tag_30\n      swap2\n      swap1\n      tag_20\n      jump\t// in\n    tag_30:\n      mload(0x40)\n      dup1\n      swap2\n      sub\n      swap1\n      return\n        /* \"nft-staking-with-infinite-rewards/nft-staking-with-infinite-rewards.sol\":2516:2551  uint256 public rewardPerTokenPerDay */\n    tag_6:\n      tag_31\n      tag_32\n      jump\t// in\n    tag_31:\n      mload(0x40)\n      tag_33\n      swap2\n      swap1\n      tag_20\n      jump\t// in\n    tag_33:\n      mload(0x40)\n      dup1\n      swap2\n      sub\n      swap1\n      return\n        /* \"nft-staking-with-infinite-rewards/nft-staking-with-infinite-rewards.sol\":4308:4602  function withdraw(uint256 tokenId) external update(_msgSender()) {\r... */\n    tag_7:\n      tag_34\n      0x04\n      dup1\n      calldatasize\n      sub\n      dup2\n      add\n      swap1\n      tag_35\n      swap2\n      swap1\n      tag_36\n      jump\t// in\n    tag_35:\n      tag_37\n      jump\t// in\n    tag_34:\n      stop\n        /* \"nft-staking-with-infinite-rewards/nft-staking-with-infinite-rewards.sol\":2425:2443  IERC721 public nft */\n    tag_8:\n      tag_38\n      tag_39\n      jump\t// in\n    tag_38:\n      mload(0x40)\n      tag_40\n      swap2\n      swap1\n      tag_41\n      jump\t// in\n    tag_40:\n      mload(0x40)\n      dup1\n      swap2\n      sub\n      swap1\n      return\n        /* \"nft-staking-with-infinite-rewards/nft-staking-with-infinite-rewards.sol\":2615:2659  mapping(address => uint256) public balanceOf */\n    tag_9:\n      tag_42\n      0x04\n      dup1\n      calldatasize\n      sub\n      dup2\n      add\n      swap1\n      tag_43\n      swap2\n      swap1\n      tag_17\n      jump\t// in\n    tag_43:\n      tag_44\n      jump\t// in\n    tag_42:\n      mload(0x40)\n      tag_45\n      swap2\n      swap1\n      tag_20\n      jump\t// in\n    tag_45:\n      mload(0x40)\n      dup1\n      swap2\n      sub\n      swap1\n      return\n        /* \"nft-staking-with-infinite-rewards/nft-staking-with-infinite-rewards.sol\":4076:4194  function stake(uint256 tokenId) external {\r... */\n    tag_10:\n      tag_46\n      0x04\n      dup1\n      calldatasize\n      sub\n      dup2\n      add\n      swap1\n      tag_47\n      swap2\n      swap1\n      tag_36\n      jump\t// in\n    tag_47:\n      tag_48\n      jump\t// in\n    tag_46:\n      stop\n        /* \"nft-staking-with-infinite-rewards/nft-staking-with-infinite-rewards.sol\":4677:5227  function redeem() external update(_msgSender()) {\r... */\n    tag_11:\n      tag_49\n      tag_50\n      jump\t// in\n    tag_49:\n      stop\n        /* \"nft-staking-with-infinite-rewards/nft-staking-with-infinite-rewards.sol\":2450:2475  IERC20 public rewardToken */\n    tag_12:\n      tag_51\n      tag_52\n      jump\t// in\n    tag_51:\n      mload(0x40)\n      tag_53\n      swap2\n      swap1\n      tag_54\n      jump\t// in\n    tag_53:\n      mload(0x40)\n      dup1\n      swap2\n      sub\n      swap1\n      return\n        /* \"nft-staking-with-infinite-rewards/nft-staking-with-infinite-rewards.sol\":2482:2509  address public rewardWallet */\n    tag_13:\n      tag_55\n      tag_56\n      jump\t// in\n    tag_55:\n      mload(0x40)\n      tag_57\n      swap2\n      swap1\n      tag_58\n      jump\t// in\n    tag_57:\n      mload(0x40)\n      dup1\n      swap2\n      sub\n      swap1\n      return\n        /* \"nft-staking-with-infinite-rewards/nft-staking-with-infinite-rewards.sol\":3671:3980  function available(address account) public view returns (uint256) {\r... */\n    tag_18:\n        /* \"nft-staking-with-infinite-rewards/nft-staking-with-infinite-rewards.sol\":3728:3735  uint256 */\n      0x00\n        /* \"nft-staking-with-infinite-rewards/nft-staking-with-infinite-rewards.sol\":3748:3767  uint256 timeElapsed */\n      dup1\n        /* \"nft-staking-with-infinite-rewards/nft-staking-with-infinite-rewards.sol\":3788:3802  lastUpdateTime */\n      0x06\n        /* \"nft-staking-with-infinite-rewards/nft-staking-with-infinite-rewards.sol\":3788:3811  lastUpdateTime[account] */\n      0x00\n        /* \"nft-staking-with-infinite-rewards/nft-staking-with-infinite-rewards.sol\":3803:3810  account */\n      dup5\n        /* \"nft-staking-with-infinite-rewards/nft-staking-with-infinite-rewards.sol\":3788:3811  lastUpdateTime[account] */\n      0xffffffffffffffffffffffffffffffffffffffff\n      and\n      0xffffffffffffffffffffffffffffffffffffffff\n      and\n      dup2\n      mstore\n      0x20\n      add\n      swap1\n      dup2\n      mstore\n      0x20\n      add\n      0x00\n      keccak256\n      sload\n        /* \"nft-staking-with-infinite-rewards/nft-staking-with-infinite-rewards.sol\":3770:3785  block.timestamp */\n      timestamp\n        /* \"nft-staking-with-infinite-rewards/nft-staking-with-infinite-rewards.sol\":3770:3811  block.timestamp - lastUpdateTime[account] */\n      tag_60\n      swap2\n      swap1\n      tag_61\n      jump\t// in\n    tag_60:\n        /* \"nft-staking-with-infinite-rewards/nft-staking-with-infinite-rewards.sol\":3748:3811  uint256 timeElapsed = block.timestamp - lastUpdateTime[account] */\n      swap1\n      pop\n        /* \"nft-staking-with-infinite-rewards/nft-staking-with-infinite-rewards.sol\":3822:3836  uint256 earned */\n      0x00\n        /* \"nft-staking-with-infinite-rewards/nft-staking-with-infinite-rewards.sol\":3925:3930  86400 */\n      0x015180\n        /* \"nft-staking-with-infinite-rewards/nft-staking-with-infinite-rewards.sol\":3901:3921  rewardPerTokenPerDay */\n      sload(0x03)\n        /* \"nft-staking-with-infinite-rewards/nft-staking-with-infinite-rewards.sol\":3874:3885  timeElapsed */\n      dup4\n        /* \"nft-staking-with-infinite-rewards/nft-staking-with-infinite-rewards.sol\":3840:3849  balanceOf */\n      0x05\n        /* \"nft-staking-with-infinite-rewards/nft-staking-with-infinite-rewards.sol\":3840:3858  balanceOf[account] */\n      0x00\n        /* \"nft-staking-with-infinite-rewards/nft-staking-with-infinite-rewards.sol\":3850:3857  account */\n      dup9\n        /* \"nft-staking-with-infinite-rewards/nft-staking-with-infinite-rewards.sol\":3840:3858  balanceOf[account] */\n      0xffffffffffffffffffffffffffffffffffffffff\n      and\n      0xffffffffffffffffffffffffffffffffffffffff\n      and\n      dup2\n      mstore\n      0x20\n      add\n      swap1\n      dup2\n      mstore\n      0x20\n      add\n      0x00\n      keccak256\n      sload\n        /* \"nft-staking-with-infinite-rewards/nft-staking-with-infinite-rewards.sol\":3840:3885  balanceOf[account] *\r... */\n      tag_62\n      swap2\n      swap1\n      tag_63\n      jump\t// in\n    tag_62:\n        /* \"nft-staking-with-infinite-rewards/nft-staking-with-infinite-rewards.sol\":3840:3921  balanceOf[account] *\r... */\n      tag_64\n      swap2\n      swap1\n      tag_63\n      jump\t// in\n    tag_64:\n        /* \"nft-staking-with-infinite-rewards/nft-staking-with-infinite-rewards.sol\":3839:3930  (balanceOf[account] *\r... */\n      tag_65\n      swap2\n      swap1\n      tag_66\n      jump\t// in\n    tag_65:\n        /* \"nft-staking-with-infinite-rewards/nft-staking-with-infinite-rewards.sol\":3822:3930  uint256 earned = (balanceOf[account] *\r... */\n      swap1\n      pop\n        /* \"nft-staking-with-infinite-rewards/nft-staking-with-infinite-rewards.sol\":3966:3972  earned */\n      dup1\n        /* \"nft-staking-with-infinite-rewards/nft-staking-with-infinite-rewards.sol\":3948:3954  reward */\n      0x07\n        /* \"nft-staking-with-infinite-rewards/nft-staking-with-infinite-rewards.sol\":3948:3963  reward[account] */\n      0x00\n        /* \"nft-staking-with-infinite-rewards/nft-staking-with-infinite-rewards.sol\":3955:3962  account */\n      dup7\n        /* \"nft-staking-with-infinite-rewards/nft-staking-with-infinite-rewards.sol\":3948:3963  reward[account] */\n      0xffffffffffffffffffffffffffffffffffffffff\n      and\n      0xffffffffffffffffffffffffffffffffffffffff\n      and\n      dup2\n      mstore\n      0x20\n      add\n      swap1\n      dup2\n      mstore\n      0x20\n      add\n      0x00\n      keccak256\n      sload\n        /* \"nft-staking-with-infinite-rewards/nft-staking-with-infinite-rewards.sol\":3948:3972  reward[account] + earned */\n      tag_67\n      swap2\n      swap1\n      tag_68\n      jump\t// in\n    tag_67:\n        /* \"nft-staking-with-infinite-rewards/nft-staking-with-infinite-rewards.sol\":3941:3972  return reward[account] + earned */\n      swap3\n      pop\n      pop\n      pop\n        /* \"nft-staking-with-infinite-rewards/nft-staking-with-infinite-rewards.sol\":3671:3980  function available(address account) public view returns (uint256) {\r... */\n      swap2\n      swap1\n      pop\n      jump\t// out\n        /* \"nft-staking-with-infinite-rewards/nft-staking-with-infinite-rewards.sol\":5238:5546  function  onERC721Received(\r... */\n    tag_24:\n        /* \"nft-staking-with-infinite-rewards/nft-staking-with-infinite-rewards.sol\":5404:5410  bytes4 */\n      0x00\n        /* \"nft-staking-with-infinite-rewards/nft-staking-with-infinite-rewards.sol\":5389:5393  from */\n      dup5\n        /* \"nft-staking-with-infinite-rewards/nft-staking-with-infinite-rewards.sol\":3450:3468  available(account) */\n      tag_70\n        /* \"nft-staking-with-infinite-rewards/nft-staking-with-infinite-rewards.sol\":3460:3467  account */\n      dup2\n        /* \"nft-staking-with-infinite-rewards/nft-staking-with-infinite-rewards.sol\":3450:3459  available */\n      tag_18\n        /* \"nft-staking-with-infinite-rewards/nft-staking-with-infinite-rewards.sol\":3450:3468  available(account) */\n      jump\t// in\n    tag_70:\n        /* \"nft-staking-with-infinite-rewards/nft-staking-with-infinite-rewards.sol\":3432:3438  reward */\n      0x07\n        /* \"nft-staking-with-infinite-rewards/nft-staking-with-infinite-rewards.sol\":3432:3447  reward[account] */\n      0x00\n        /* \"nft-staking-with-infinite-rewards/nft-staking-with-infinite-rewards.sol\":3439:3446  account */\n      dup4\n        /* \"nft-staking-with-infinite-rewards/nft-staking-with-infinite-rewards.sol\":3432:3447  reward[account] */\n      0xffffffffffffffffffffffffffffffffffffffff\n      and\n      0xffffffffffffffffffffffffffffffffffffffff\n      and\n      dup2\n      mstore\n      0x20\n      add\n      swap1\n      dup2\n      mstore\n      0x20\n      add\n      0x00\n      keccak256\n        /* \"nft-staking-with-infinite-rewards/nft-staking-with-infinite-rewards.sol\":3432:3468  reward[account] = available(account) */\n      dup2\n      swap1\n      sstore\n      pop\n        /* \"nft-staking-with-infinite-rewards/nft-staking-with-infinite-rewards.sol\":3505:3520  block.timestamp */\n      timestamp\n        /* \"nft-staking-with-infinite-rewards/nft-staking-with-infinite-rewards.sol\":3479:3493  lastUpdateTime */\n      0x06\n        /* \"nft-staking-with-infinite-rewards/nft-staking-with-infinite-rewards.sol\":3479:3502  lastUpdateTime[account] */\n      0x00\n        /* \"nft-staking-with-infinite-rewards/nft-staking-with-infinite-rewards.sol\":3494:3501  account */\n      dup4\n        /* \"nft-staking-with-infinite-rewards/nft-staking-with-infinite-rewards.sol\":3479:3502  lastUpdateTime[account] */\n      0xffffffffffffffffffffffffffffffffffffffff\n      and\n      0xffffffffffffffffffffffffffffffffffffffff\n      and\n      dup2\n      mstore\n      0x20\n      add\n      swap1\n      dup2\n      mstore\n      0x20\n      add\n      0x00\n      keccak256\n        /* \"nft-staking-with-infinite-rewards/nft-staking-with-infinite-rewards.sol\":3479:3520  lastUpdateTime[account] = block.timestamp */\n      dup2\n      swap1\n      sstore\n      pop\n        /* \"nft-staking-with-infinite-rewards/nft-staking-with-infinite-rewards.sol\":5447:5451  from */\n      dup6\n        /* \"nft-staking-with-infinite-rewards/nft-staking-with-infinite-rewards.sol\":5423:5435  stakedTokens */\n      0x04\n        /* \"nft-staking-with-infinite-rewards/nft-staking-with-infinite-rewards.sol\":5423:5444  stakedTokens[tokenId] */\n      0x00\n        /* \"nft-staking-with-infinite-rewards/nft-staking-with-infinite-rewards.sol\":5436:5443  tokenId */\n      dup8\n        /* \"nft-staking-with-infinite-rewards/nft-staking-with-infinite-rewards.sol\":5423:5444  stakedTokens[tokenId] */\n      dup2\n      mstore\n      0x20\n      add\n      swap1\n      dup2\n      mstore\n      0x20\n      add\n      0x00\n      keccak256\n      0x00\n        /* \"nft-staking-with-infinite-rewards/nft-staking-with-infinite-rewards.sol\":5423:5451  stakedTokens[tokenId] = from */\n      0x0100\n      exp\n      dup2\n      sload\n      dup2\n      0xffffffffffffffffffffffffffffffffffffffff\n      mul\n      not\n      and\n      swap1\n      dup4\n      0xffffffffffffffffffffffffffffffffffffffff\n      and\n      mul\n      or\n      swap1\n      sstore\n      pop\n        /* \"nft-staking-with-infinite-rewards/nft-staking-with-infinite-rewards.sol\":5462:5471  balanceOf */\n      0x05\n        /* \"nft-staking-with-infinite-rewards/nft-staking-with-infinite-rewards.sol\":5462:5477  balanceOf[from] */\n      0x00\n        /* \"nft-staking-with-infinite-rewards/nft-staking-with-infinite-rewards.sol\":5472:5476  from */\n      dup8\n        /* \"nft-staking-with-infinite-rewards/nft-staking-with-infinite-rewards.sol\":5462:5477  balanceOf[from] */\n      0xffffffffffffffffffffffffffffffffffffffff\n      and\n      0xffffffffffffffffffffffffffffffffffffffff\n      and\n      dup2\n      mstore\n      0x20\n      add\n      swap1\n      dup2\n      mstore\n      0x20\n      add\n      0x00\n      keccak256\n      0x00\n        /* \"nft-staking-with-infinite-rewards/nft-staking-with-infinite-rewards.sol\":5462:5479  balanceOf[from]++ */\n      dup2\n      sload\n      dup1\n      swap3\n      swap2\n      swap1\n      tag_72\n      swap1\n      tag_73\n      jump\t// in\n    tag_72:\n      swap2\n      swap1\n      pop\n      sstore\n      pop\n        /* \"nft-staking-with-infinite-rewards/nft-staking-with-infinite-rewards.sol\":5497:5538  IERC721Receiver.onERC721Received.selector */\n      shl(0xe0, 0x150b7a02)\n        /* \"nft-staking-with-infinite-rewards/nft-staking-with-infinite-rewards.sol\":5490:5538  return IERC721Receiver.onERC721Received.selector */\n      swap2\n      pop\n        /* \"nft-staking-with-infinite-rewards/nft-staking-with-infinite-rewards.sol\":5238:5546  function  onERC721Received(\r... */\n      pop\n      swap6\n      swap5\n      pop\n      pop\n      pop\n      pop\n      pop\n      jump\t// out\n        /* \"nft-staking-with-infinite-rewards/nft-staking-with-infinite-rewards.sol\":2666:2715  mapping(address => uint256) public lastUpdateTime */\n    tag_29:\n      mstore(0x20, 0x06)\n      dup1\n      0x00\n      mstore\n      keccak256(0x00, 0x40)\n      0x00\n      swap2\n      pop\n      swap1\n      pop\n      sload\n      dup2\n      jump\t// out\n        /* \"nft-staking-with-infinite-rewards/nft-staking-with-infinite-rewards.sol\":2516:2551  uint256 public rewardPerTokenPerDay */\n    tag_32:\n      sload(0x03)\n      dup2\n      jump\t// out\n        /* \"nft-staking-with-infinite-rewards/nft-staking-with-infinite-rewards.sol\":4308:4602  function withdraw(uint256 tokenId) external update(_msgSender()) {\r... */\n    tag_37:\n        /* \"nft-staking-with-infinite-rewards/nft-staking-with-infinite-rewards.sol\":4359:4371  _msgSender() */\n      tag_74\n        /* \"nft-staking-with-infinite-rewards/nft-staking-with-infinite-rewards.sol\":4359:4369  _msgSender */\n      tag_75\n        /* \"nft-staking-with-infinite-rewards/nft-staking-with-infinite-rewards.sol\":4359:4371  _msgSender() */\n      jump\t// in\n    tag_74:\n        /* \"nft-staking-with-infinite-rewards/nft-staking-with-infinite-rewards.sol\":3450:3468  available(account) */\n      tag_77\n        /* \"nft-staking-with-infinite-rewards/nft-staking-with-infinite-rewards.sol\":3460:3467  account */\n      dup2\n        /* \"nft-staking-with-infinite-rewards/nft-staking-with-infinite-rewards.sol\":3450:3459  available */\n      tag_18\n        /* \"nft-staking-with-infinite-rewards/nft-staking-with-infinite-rewards.sol\":3450:3468  available(account) */\n      jump\t// in\n    tag_77:\n        /* \"nft-staking-with-infinite-rewards/nft-staking-with-infinite-rewards.sol\":3432:3438  reward */\n      0x07\n        /* \"nft-staking-with-infinite-rewards/nft-staking-with-infinite-rewards.sol\":3432:3447  reward[account] */\n      0x00\n        /* \"nft-staking-with-infinite-rewards/nft-staking-with-infinite-rewards.sol\":3439:3446  account */\n      dup4\n        /* \"nft-staking-with-infinite-rewards/nft-staking-with-infinite-rewards.sol\":3432:3447  reward[account] */\n      0xffffffffffffffffffffffffffffffffffffffff\n      and\n      0xffffffffffffffffffffffffffffffffffffffff\n      and\n      dup2\n      mstore\n      0x20\n      add\n      swap1\n      dup2\n      mstore\n      0x20\n      add\n      0x00\n      keccak256\n        /* \"nft-staking-with-infinite-rewards/nft-staking-with-infinite-rewards.sol\":3432:3468  reward[account] = available(account) */\n      dup2\n      swap1\n      sstore\n      pop\n        /* \"nft-staking-with-infinite-rewards/nft-staking-with-infinite-rewards.sol\":3505:3520  block.timestamp */\n      timestamp\n        /* \"nft-staking-with-infinite-rewards/nft-staking-with-infinite-rewards.sol\":3479:3493  lastUpdateTime */\n      0x06\n        /* \"nft-staking-with-infinite-rewards/nft-staking-with-infinite-rewards.sol\":3479:3502  lastUpdateTime[account] */\n      0x00\n        /* \"nft-staking-with-infinite-rewards/nft-staking-with-infinite-rewards.sol\":3494:3501  account */\n      dup4\n        /* \"nft-staking-with-infinite-rewards/nft-staking-with-infinite-rewards.sol\":3479:3502  lastUpdateTime[account] */\n      0xffffffffffffffffffffffffffffffffffffffff\n      and\n      0xffffffffffffffffffffffffffffffffffffffff\n      and\n      dup2\n      mstore\n      0x20\n      add\n      swap1\n      dup2\n      mstore\n      0x20\n      add\n      0x00\n      keccak256\n        /* \"nft-staking-with-infinite-rewards/nft-staking-with-infinite-rewards.sol\":3479:3520  lastUpdateTime[account] = block.timestamp */\n      dup2\n      swap1\n      sstore\n      pop\n        /* \"nft-staking-with-infinite-rewards/nft-staking-with-infinite-rewards.sol\":4417:4429  _msgSender() */\n      tag_79\n        /* \"nft-staking-with-infinite-rewards/nft-staking-with-infinite-rewards.sol\":4417:4427  _msgSender */\n      tag_75\n        /* \"nft-staking-with-infinite-rewards/nft-staking-with-infinite-rewards.sol\":4417:4429  _msgSender() */\n      jump\t// in\n    tag_79:\n        /* \"nft-staking-with-infinite-rewards/nft-staking-with-infinite-rewards.sol\":4392:4429  stakedTokens[tokenId] == _msgSender() */\n      0xffffffffffffffffffffffffffffffffffffffff\n      and\n        /* \"nft-staking-with-infinite-rewards/nft-staking-with-infinite-rewards.sol\":4392:4404  stakedTokens */\n      0x04\n        /* \"nft-staking-with-infinite-rewards/nft-staking-with-infinite-rewards.sol\":4392:4413  stakedTokens[tokenId] */\n      0x00\n        /* \"nft-staking-with-infinite-rewards/nft-staking-with-infinite-rewards.sol\":4405:4412  tokenId */\n      dup5\n        /* \"nft-staking-with-infinite-rewards/nft-staking-with-infinite-rewards.sol\":4392:4413  stakedTokens[tokenId] */\n      dup2\n      mstore\n      0x20\n      add\n      swap1\n      dup2\n      mstore\n      0x20\n      add\n      0x00\n      keccak256\n      0x00\n      swap1\n      sload\n      swap1\n      0x0100\n      exp\n      swap1\n      div\n      0xffffffffffffffffffffffffffffffffffffffff\n      and\n        /* \"nft-staking-with-infinite-rewards/nft-staking-with-infinite-rewards.sol\":4392:4429  stakedTokens[tokenId] == _msgSender() */\n      0xffffffffffffffffffffffffffffffffffffffff\n      and\n      eq\n        /* \"nft-staking-with-infinite-rewards/nft-staking-with-infinite-rewards.sol\":4384:4454  require(stakedTokens[tokenId] == _msgSender(), \"Token is not staked.\") */\n      tag_80\n      jumpi\n      mload(0x40)\n      0x08c379a000000000000000000000000000000000000000000000000000000000\n      dup2\n      mstore\n      0x04\n      add\n      tag_81\n      swap1\n      tag_82\n      jump\t// in\n    tag_81:\n      mload(0x40)\n      dup1\n      swap2\n      sub\n      swap1\n      revert\n    tag_80:\n        /* \"nft-staking-with-infinite-rewards/nft-staking-with-infinite-rewards.sol\":4472:4484  stakedTokens */\n      0x04\n        /* \"nft-staking-with-infinite-rewards/nft-staking-with-infinite-rewards.sol\":4472:4493  stakedTokens[tokenId] */\n      0x00\n        /* \"nft-staking-with-infinite-rewards/nft-staking-with-infinite-rewards.sol\":4485:4492  tokenId */\n      dup4\n        /* \"nft-staking-with-infinite-rewards/nft-staking-with-infinite-rewards.sol\":4472:4493  stakedTokens[tokenId] */\n      dup2\n      mstore\n      0x20\n      add\n      swap1\n      dup2\n      mstore\n      0x20\n      add\n      0x00\n      keccak256\n      0x00\n        /* \"nft-staking-with-infinite-rewards/nft-staking-with-infinite-rewards.sol\":4465:4493  delete stakedTokens[tokenId] */\n      0x0100\n      exp\n      dup2\n      sload\n      swap1\n      0xffffffffffffffffffffffffffffffffffffffff\n      mul\n      not\n      and\n      swap1\n      sstore\n        /* \"nft-staking-with-infinite-rewards/nft-staking-with-infinite-rewards.sol\":4504:4513  balanceOf */\n      0x05\n        /* \"nft-staking-with-infinite-rewards/nft-staking-with-infinite-rewards.sol\":4504:4527  balanceOf[_msgSender()] */\n      0x00\n        /* \"nft-staking-with-infinite-rewards/nft-staking-with-infinite-rewards.sol\":4514:4526  _msgSender() */\n      tag_83\n        /* \"nft-staking-with-infinite-rewards/nft-staking-with-infinite-rewards.sol\":4514:4524  _msgSender */\n      tag_75\n        /* \"nft-staking-with-infinite-rewards/nft-staking-with-infinite-rewards.sol\":4514:4526  _msgSender() */\n      jump\t// in\n    tag_83:\n        /* \"nft-staking-with-infinite-rewards/nft-staking-with-infinite-rewards.sol\":4504:4527  balanceOf[_msgSender()] */\n      0xffffffffffffffffffffffffffffffffffffffff\n      and\n      0xffffffffffffffffffffffffffffffffffffffff\n      and\n      dup2\n      mstore\n      0x20\n      add\n      swap1\n      dup2\n      mstore\n      0x20\n      add\n      0x00\n      keccak256\n      0x00\n        /* \"nft-staking-with-infinite-rewards/nft-staking-with-infinite-rewards.sol\":4504:4529  balanceOf[_msgSender()]-- */\n      dup2\n      sload\n      dup1\n      swap3\n      swap2\n      swap1\n      tag_84\n      swap1\n      tag_85\n      jump\t// in\n    tag_84:\n      swap2\n      swap1\n      pop\n      sstore\n      pop\n        /* \"nft-staking-with-infinite-rewards/nft-staking-with-infinite-rewards.sol\":4540:4543  nft */\n      0x00\n      dup1\n      sload\n      swap1\n      0x0100\n      exp\n      swap1\n      div\n      0xffffffffffffffffffffffffffffffffffffffff\n      and\n        /* \"nft-staking-with-infinite-rewards/nft-staking-with-infinite-rewards.sol\":4540:4556  nft.transferFrom */\n      0xffffffffffffffffffffffffffffffffffffffff\n      and\n      0x23b872dd\n        /* \"nft-staking-with-infinite-rewards/nft-staking-with-infinite-rewards.sol\":4565:4569  this */\n      address\n        /* \"nft-staking-with-infinite-rewards/nft-staking-with-infinite-rewards.sol\":4572:4584  _msgSender() */\n      tag_86\n        /* \"nft-staking-with-infinite-rewards/nft-staking-with-infinite-rewards.sol\":4572:4582  _msgSender */\n      tag_75\n        /* \"nft-staking-with-infinite-rewards/nft-staking-with-infinite-rewards.sol\":4572:4584  _msgSender() */\n      jump\t// in\n    tag_86:\n        /* \"nft-staking-with-infinite-rewards/nft-staking-with-infinite-rewards.sol\":4586:4593  tokenId */\n      dup6\n        /* \"nft-staking-with-infinite-rewards/nft-staking-with-infinite-rewards.sol\":4540:4594  nft.transferFrom(address(this), _msgSender(), tokenId) */\n      mload(0x40)\n      dup5\n      0xffffffff\n      and\n      0xe0\n      shl\n      dup2\n      mstore\n      0x04\n      add\n      tag_87\n      swap4\n      swap3\n      swap2\n      swap1\n      tag_88\n      jump\t// in\n    tag_87:\n      0x00\n      mload(0x40)\n      dup1\n      dup4\n      sub\n      dup2\n      0x00\n      dup8\n      dup1\n      extcodesize\n      iszero\n      dup1\n      iszero\n      tag_89\n      jumpi\n      0x00\n      dup1\n      revert\n    tag_89:\n      pop\n      gas\n      call\n      iszero\n      dup1\n      iszero\n      tag_91\n      jumpi\n      returndatasize\n      0x00\n      dup1\n      returndatacopy\n      revert(0x00, returndatasize)\n    tag_91:\n      pop\n      pop\n      pop\n      pop\n        /* \"nft-staking-with-infinite-rewards/nft-staking-with-infinite-rewards.sol\":4308:4602  function withdraw(uint256 tokenId) external update(_msgSender()) {\r... */\n      pop\n      pop\n      jump\t// out\n        /* \"nft-staking-with-infinite-rewards/nft-staking-with-infinite-rewards.sol\":2425:2443  IERC721 public nft */\n    tag_39:\n      0x00\n      dup1\n      sload\n      swap1\n      0x0100\n      exp\n      swap1\n      div\n      0xffffffffffffffffffffffffffffffffffffffff\n      and\n      dup2\n      jump\t// out\n        /* \"nft-staking-with-infinite-rewards/nft-staking-with-infinite-rewards.sol\":2615:2659  mapping(address => uint256) public balanceOf */\n    tag_44:\n      mstore(0x20, 0x05)\n      dup1\n      0x00\n      mstore\n      keccak256(0x00, 0x40)\n      0x00\n      swap2\n      pop\n      swap1\n      pop\n      sload\n      dup2\n      jump\t// out\n        /* \"nft-staking-with-infinite-rewards/nft-staking-with-infinite-rewards.sol\":4076:4194  function stake(uint256 tokenId) external {\r... */\n    tag_48:\n        /* \"nft-staking-with-infinite-rewards/nft-staking-with-infinite-rewards.sol\":4128:4131  nft */\n      0x00\n      dup1\n      sload\n      swap1\n      0x0100\n      exp\n      swap1\n      div\n      0xffffffffffffffffffffffffffffffffffffffff\n      and\n        /* \"nft-staking-with-infinite-rewards/nft-staking-with-infinite-rewards.sol\":4128:4148  nft.safeTransferFrom */\n      0xffffffffffffffffffffffffffffffffffffffff\n      and\n      0x42842e0e\n        /* \"nft-staking-with-infinite-rewards/nft-staking-with-infinite-rewards.sol\":4149:4161  _msgSender() */\n      tag_93\n        /* \"nft-staking-with-infinite-rewards/nft-staking-with-infinite-rewards.sol\":4149:4159  _msgSender */\n      tag_75\n        /* \"nft-staking-with-infinite-rewards/nft-staking-with-infinite-rewards.sol\":4149:4161  _msgSender() */\n      jump\t// in\n    tag_93:\n        /* \"nft-staking-with-infinite-rewards/nft-staking-with-infinite-rewards.sol\":4171:4175  this */\n      address\n        /* \"nft-staking-with-infinite-rewards/nft-staking-with-infinite-rewards.sol\":4178:4185  tokenId */\n      dup5\n        /* \"nft-staking-with-infinite-rewards/nft-staking-with-infinite-rewards.sol\":4128:4186  nft.safeTransferFrom(_msgSender(), address(this), tokenId) */\n      mload(0x40)\n      dup5\n      0xffffffff\n      and\n      0xe0\n      shl\n      dup2\n      mstore\n      0x04\n      add\n      tag_94\n      swap4\n      swap3\n      swap2\n      swap1\n      tag_88\n      jump\t// in\n    tag_94:\n      0x00\n      mload(0x40)\n      dup1\n      dup4\n      sub\n      dup2\n      0x00\n      dup8\n      dup1\n      extcodesize\n      iszero\n      dup1\n      iszero\n      tag_95\n      jumpi\n      0x00\n      dup1\n      revert\n    tag_95:\n      pop\n      gas\n      call\n      iszero\n      dup1\n      iszero\n      tag_97\n      jumpi\n      returndatasize\n      0x00\n      dup1\n      returndatacopy\n      revert(0x00, returndatasize)\n    tag_97:\n      pop\n      pop\n      pop\n      pop\n        /* \"nft-staking-with-infinite-rewards/nft-staking-with-infinite-rewards.sol\":4076:4194  function stake(uint256 tokenId) external {\r... */\n      pop\n      jump\t// out\n        /* \"nft-staking-with-infinite-rewards/nft-staking-with-infinite-rewards.sol\":4677:5227  function redeem() external update(_msgSender()) {\r... */\n    tag_50:\n        /* \"nft-staking-with-infinite-rewards/nft-staking-with-infinite-rewards.sol\":4711:4723  _msgSender() */\n      tag_98\n        /* \"nft-staking-with-infinite-rewards/nft-staking-with-infinite-rewards.sol\":4711:4721  _msgSender */\n      tag_75\n        /* \"nft-staking-with-infinite-rewards/nft-staking-with-infinite-rewards.sol\":4711:4723  _msgSender() */\n      jump\t// in\n    tag_98:\n        /* \"nft-staking-with-infinite-rewards/nft-staking-with-infinite-rewards.sol\":3450:3468  available(account) */\n      tag_100\n        /* \"nft-staking-with-infinite-rewards/nft-staking-with-infinite-rewards.sol\":3460:3467  account */\n      dup2\n        /* \"nft-staking-with-infinite-rewards/nft-staking-with-infinite-rewards.sol\":3450:3459  available */\n      tag_18\n        /* \"nft-staking-with-infinite-rewards/nft-staking-with-infinite-rewards.sol\":3450:3468  available(account) */\n      jump\t// in\n    tag_100:\n        /* \"nft-staking-with-infinite-rewards/nft-staking-with-infinite-rewards.sol\":3432:3438  reward */\n      0x07\n        /* \"nft-staking-with-infinite-rewards/nft-staking-with-infinite-rewards.sol\":3432:3447  reward[account] */\n      0x00\n        /* \"nft-staking-with-infinite-rewards/nft-staking-with-infinite-rewards.sol\":3439:3446  account */\n      dup4\n        /* \"nft-staking-with-infinite-rewards/nft-staking-with-infinite-rewards.sol\":3432:3447  reward[account] */\n      0xffffffffffffffffffffffffffffffffffffffff\n      and\n      0xffffffffffffffffffffffffffffffffffffffff\n      and\n      dup2\n      mstore\n      0x20\n      add\n      swap1\n      dup2\n      mstore\n      0x20\n      add\n      0x00\n      keccak256\n        /* \"nft-staking-with-infinite-rewards/nft-staking-with-infinite-rewards.sol\":3432:3468  reward[account] = available(account) */\n      dup2\n      swap1\n      sstore\n      pop\n        /* \"nft-staking-with-infinite-rewards/nft-staking-with-infinite-rewards.sol\":3505:3520  block.timestamp */\n      timestamp\n        /* \"nft-staking-with-infinite-rewards/nft-staking-with-infinite-rewards.sol\":3479:3493  lastUpdateTime */\n      0x06\n        /* \"nft-staking-with-infinite-rewards/nft-staking-with-infinite-rewards.sol\":3479:3502  lastUpdateTime[account] */\n      0x00\n        /* \"nft-staking-with-infinite-rewards/nft-staking-with-infinite-rewards.sol\":3494:3501  account */\n      dup4\n        /* \"nft-staking-with-infinite-rewards/nft-staking-with-infinite-rewards.sol\":3479:3502  lastUpdateTime[account] */\n      0xffffffffffffffffffffffffffffffffffffffff\n      and\n      0xffffffffffffffffffffffffffffffffffffffff\n      and\n      dup2\n      mstore\n      0x20\n      add\n      swap1\n      dup2\n      mstore\n      0x20\n      add\n      0x00\n      keccak256\n        /* \"nft-staking-with-infinite-rewards/nft-staking-with-infinite-rewards.sol\":3479:3520  lastUpdateTime[account] = block.timestamp */\n      dup2\n      swap1\n      sstore\n      pop\n        /* \"nft-staking-with-infinite-rewards/nft-staking-with-infinite-rewards.sol\":4732:4746  uint256 amount */\n      0x00\n        /* \"nft-staking-with-infinite-rewards/nft-staking-with-infinite-rewards.sol\":4749:4755  reward */\n      0x07\n        /* \"nft-staking-with-infinite-rewards/nft-staking-with-infinite-rewards.sol\":4749:4769  reward[_msgSender()] */\n      0x00\n        /* \"nft-staking-with-infinite-rewards/nft-staking-with-infinite-rewards.sol\":4756:4768  _msgSender() */\n      tag_102\n        /* \"nft-staking-with-infinite-rewards/nft-staking-with-infinite-rewards.sol\":4756:4766  _msgSender */\n      tag_75\n        /* \"nft-staking-with-infinite-rewards/nft-staking-with-infinite-rewards.sol\":4756:4768  _msgSender() */\n      jump\t// in\n    tag_102:\n        /* \"nft-staking-with-infinite-rewards/nft-staking-with-infinite-rewards.sol\":4749:4769  reward[_msgSender()] */\n      0xffffffffffffffffffffffffffffffffffffffff\n      and\n      0xffffffffffffffffffffffffffffffffffffffff\n      and\n      dup2\n      mstore\n      0x20\n      add\n      swap1\n      dup2\n      mstore\n      0x20\n      add\n      0x00\n      keccak256\n      sload\n        /* \"nft-staking-with-infinite-rewards/nft-staking-with-infinite-rewards.sol\":4732:4769  uint256 amount = reward[_msgSender()] */\n      swap1\n      pop\n        /* \"nft-staking-with-infinite-rewards/nft-staking-with-infinite-rewards.sol\":4793:4794  0 */\n      0x00\n        /* \"nft-staking-with-infinite-rewards/nft-staking-with-infinite-rewards.sol\":4784:4790  amount */\n      dup2\n        /* \"nft-staking-with-infinite-rewards/nft-staking-with-infinite-rewards.sol\":4784:4794  amount > 0 */\n      gt\n        /* \"nft-staking-with-infinite-rewards/nft-staking-with-infinite-rewards.sol\":4776:4816  require(amount > 0, \"Nothing to redeem\") */\n      tag_103\n      jumpi\n      mload(0x40)\n      0x08c379a000000000000000000000000000000000000000000000000000000000\n      dup2\n      mstore\n      0x04\n      add\n      tag_104\n      swap1\n      tag_105\n      jump\t// in\n    tag_104:\n      mload(0x40)\n      dup1\n      swap2\n      sub\n      swap1\n      revert\n    tag_103:\n        /* \"nft-staking-with-infinite-rewards/nft-staking-with-infinite-rewards.sol\":4846:4847  0 */\n      0x00\n        /* \"nft-staking-with-infinite-rewards/nft-staking-with-infinite-rewards.sol\":4823:4829  reward */\n      0x07\n        /* \"nft-staking-with-infinite-rewards/nft-staking-with-infinite-rewards.sol\":4823:4843  reward[_msgSender()] */\n      0x00\n        /* \"nft-staking-with-infinite-rewards/nft-staking-with-infinite-rewards.sol\":4830:4842  _msgSender() */\n      tag_106\n        /* \"nft-staking-with-infinite-rewards/nft-staking-with-infinite-rewards.sol\":4830:4840  _msgSender */\n      tag_75\n        /* \"nft-staking-with-infinite-rewards/nft-staking-with-infinite-rewards.sol\":4830:4842  _msgSender() */\n      jump\t// in\n    tag_106:\n        /* \"nft-staking-with-infinite-rewards/nft-staking-with-infinite-rewards.sol\":4823:4843  reward[_msgSender()] */\n      0xffffffffffffffffffffffffffffffffffffffff\n      and\n      0xffffffffffffffffffffffffffffffffffffffff\n      and\n      dup2\n      mstore\n      0x20\n      add\n      swap1\n      dup2\n      mstore\n      0x20\n      add\n      0x00\n      keccak256\n        /* \"nft-staking-with-infinite-rewards/nft-staking-with-infinite-rewards.sol\":4823:4847  reward[_msgSender()] = 0 */\n      dup2\n      swap1\n      sstore\n      pop\n        /* \"nft-staking-with-infinite-rewards/nft-staking-with-infinite-rewards.sol\":4856:4873  uint256 allowance */\n      0x00\n        /* \"nft-staking-with-infinite-rewards/nft-staking-with-infinite-rewards.sol\":4876:4887  rewardToken */\n      0x01\n      0x00\n      swap1\n      sload\n      swap1\n      0x0100\n      exp\n      swap1\n      div\n      0xffffffffffffffffffffffffffffffffffffffff\n      and\n        /* \"nft-staking-with-infinite-rewards/nft-staking-with-infinite-rewards.sol\":4876:4897  rewardToken.allowance */\n      0xffffffffffffffffffffffffffffffffffffffff\n      and\n      0xdd62ed3e\n        /* \"nft-staking-with-infinite-rewards/nft-staking-with-infinite-rewards.sol\":4898:4910  rewardWallet */\n      0x02\n      0x00\n      swap1\n      sload\n      swap1\n      0x0100\n      exp\n      swap1\n      div\n      0xffffffffffffffffffffffffffffffffffffffff\n      and\n        /* \"nft-staking-with-infinite-rewards/nft-staking-with-infinite-rewards.sol\":4920:4924  this */\n      address\n        /* \"nft-staking-with-infinite-rewards/nft-staking-with-infinite-rewards.sol\":4876:4926  rewardToken.allowance(rewardWallet, address(this)) */\n      mload(0x40)\n      dup4\n      0xffffffff\n      and\n      0xe0\n      shl\n      dup2\n      mstore\n      0x04\n      add\n      tag_107\n      swap3\n      swap2\n      swap1\n      tag_108\n      jump\t// in\n    tag_107:\n      0x20\n      mload(0x40)\n      dup1\n      dup4\n      sub\n      dup2\n      dup7\n      dup1\n      extcodesize\n      iszero\n      dup1\n      iszero\n      tag_109\n      jumpi\n      0x00\n      dup1\n      revert\n    tag_109:\n      pop\n      gas\n      staticcall\n      iszero\n      dup1\n      iszero\n      tag_111\n      jumpi\n      returndatasize\n      0x00\n      dup1\n      returndatacopy\n      revert(0x00, returndatasize)\n    tag_111:\n      pop\n      pop\n      pop\n      pop\n      mload(0x40)\n      returndatasize\n      not(0x1f)\n      0x1f\n      dup3\n      add\n      and\n      dup3\n      add\n      dup1\n      0x40\n      mstore\n      pop\n      dup2\n      add\n      swap1\n      tag_112\n      swap2\n      swap1\n      tag_113\n      jump\t// in\n    tag_112:\n        /* \"nft-staking-with-infinite-rewards/nft-staking-with-infinite-rewards.sol\":4856:4926  uint256 allowance = rewardToken.allowance(rewardWallet, address(this)) */\n      swap1\n      pop\n        /* \"nft-staking-with-infinite-rewards/nft-staking-with-infinite-rewards.sol\":4933:4960  uint256 rewardWalletBalance */\n      0x00\n        /* \"nft-staking-with-infinite-rewards/nft-staking-with-infinite-rewards.sol\":4963:4974  rewardToken */\n      0x01\n      0x00\n      swap1\n      sload\n      swap1\n      0x0100\n      exp\n      swap1\n      div\n      0xffffffffffffffffffffffffffffffffffffffff\n      and\n        /* \"nft-staking-with-infinite-rewards/nft-staking-with-infinite-rewards.sol\":4963:4984  rewardToken.balanceOf */\n      0xffffffffffffffffffffffffffffffffffffffff\n      and\n      0x70a08231\n        /* \"nft-staking-with-infinite-rewards/nft-staking-with-infinite-rewards.sol\":4985:4997  rewardWallet */\n      0x02\n      0x00\n      swap1\n      sload\n      swap1\n      0x0100\n      exp\n      swap1\n      div\n      0xffffffffffffffffffffffffffffffffffffffff\n      and\n        /* \"nft-staking-with-infinite-rewards/nft-staking-with-infinite-rewards.sol\":4963:4998  rewardToken.balanceOf(rewardWallet) */\n      mload(0x40)\n      dup3\n      0xffffffff\n      and\n      0xe0\n      shl\n      dup2\n      mstore\n      0x04\n      add\n      tag_114\n      swap2\n      swap1\n      tag_58\n      jump\t// in\n    tag_114:\n      0x20\n      mload(0x40)\n      dup1\n      dup4\n      sub\n      dup2\n      dup7\n      dup1\n      extcodesize\n      iszero\n      dup1\n      iszero\n      tag_115\n      jumpi\n      0x00\n      dup1\n      revert\n    tag_115:\n      pop\n      gas\n      staticcall\n      iszero\n      dup1\n      iszero\n      tag_117\n      jumpi\n      returndatasize\n      0x00\n      dup1\n      returndatacopy\n      revert(0x00, returndatasize)\n    tag_117:\n      pop\n      pop\n      pop\n      pop\n      mload(0x40)\n      returndatasize\n      not(0x1f)\n      0x1f\n      dup3\n      add\n      and\n      dup3\n      add\n      dup1\n      0x40\n      mstore\n      pop\n      dup2\n      add\n      swap1\n      tag_118\n      swap2\n      swap1\n      tag_113\n      jump\t// in\n    tag_118:\n        /* \"nft-staking-with-infinite-rewards/nft-staking-with-infinite-rewards.sol\":4933:4998  uint256 rewardWalletBalance = rewardToken.balanceOf(rewardWallet) */\n      swap1\n      pop\n        /* \"nft-staking-with-infinite-rewards/nft-staking-with-infinite-rewards.sol\":5026:5032  amount */\n      dup3\n        /* \"nft-staking-with-infinite-rewards/nft-staking-with-infinite-rewards.sol\":5013:5022  allowance */\n      dup3\n        /* \"nft-staking-with-infinite-rewards/nft-staking-with-infinite-rewards.sol\":5013:5032  allowance >= amount */\n      lt\n      iszero\n        /* \"nft-staking-with-infinite-rewards/nft-staking-with-infinite-rewards.sol\":5005:5072  require(allowance >= amount, \"Check the reward wallet's allowance\") */\n      tag_119\n      jumpi\n      mload(0x40)\n      0x08c379a000000000000000000000000000000000000000000000000000000000\n      dup2\n      mstore\n      0x04\n      add\n      tag_120\n      swap1\n      tag_121\n      jump\t// in\n    tag_120:\n      mload(0x40)\n      dup1\n      swap2\n      sub\n      swap1\n      revert\n    tag_119:\n        /* \"nft-staking-with-infinite-rewards/nft-staking-with-infinite-rewards.sol\":5110:5116  amount */\n      dup3\n        /* \"nft-staking-with-infinite-rewards/nft-staking-with-infinite-rewards.sol\":5087:5106  rewardWalletBalance */\n      dup2\n        /* \"nft-staking-with-infinite-rewards/nft-staking-with-infinite-rewards.sol\":5087:5116  rewardWalletBalance >= amount */\n      lt\n      iszero\n        /* \"nft-staking-with-infinite-rewards/nft-staking-with-infinite-rewards.sol\":5079:5154  require(rewardWalletBalance >= amount, \"Check the reward wallet's balance\") */\n      tag_122\n      jumpi\n      mload(0x40)\n      0x08c379a000000000000000000000000000000000000000000000000000000000\n      dup2\n      mstore\n      0x04\n      add\n      tag_123\n      swap1\n      tag_124\n      jump\t// in\n    tag_123:\n      mload(0x40)\n      dup1\n      swap2\n      sub\n      swap1\n      revert\n    tag_122:\n        /* \"nft-staking-with-infinite-rewards/nft-staking-with-infinite-rewards.sol\":5163:5174  rewardToken */\n      0x01\n      0x00\n      swap1\n      sload\n      swap1\n      0x0100\n      exp\n      swap1\n      div\n      0xffffffffffffffffffffffffffffffffffffffff\n      and\n        /* \"nft-staking-with-infinite-rewards/nft-staking-with-infinite-rewards.sol\":5163:5187  rewardToken.transferFrom */\n      0xffffffffffffffffffffffffffffffffffffffff\n      and\n      0x23b872dd\n        /* \"nft-staking-with-infinite-rewards/nft-staking-with-infinite-rewards.sol\":5188:5200  rewardWallet */\n      0x02\n      0x00\n      swap1\n      sload\n      swap1\n      0x0100\n      exp\n      swap1\n      div\n      0xffffffffffffffffffffffffffffffffffffffff\n      and\n        /* \"nft-staking-with-infinite-rewards/nft-staking-with-infinite-rewards.sol\":5202:5214  _msgSender() */\n      tag_125\n        /* \"nft-staking-with-infinite-rewards/nft-staking-with-infinite-rewards.sol\":5202:5212  _msgSender */\n      tag_75\n        /* \"nft-staking-with-infinite-rewards/nft-staking-with-infinite-rewards.sol\":5202:5214  _msgSender() */\n      jump\t// in\n    tag_125:\n        /* \"nft-staking-with-infinite-rewards/nft-staking-with-infinite-rewards.sol\":5216:5222  amount */\n      dup7\n        /* \"nft-staking-with-infinite-rewards/nft-staking-with-infinite-rewards.sol\":5163:5223  rewardToken.transferFrom(rewardWallet, _msgSender(), amount) */\n      mload(0x40)\n      dup5\n      0xffffffff\n      and\n      0xe0\n      shl\n      dup2\n      mstore\n      0x04\n      add\n      tag_126\n      swap4\n      swap3\n      swap2\n      swap1\n      tag_88\n      jump\t// in\n    tag_126:\n      0x20\n      mload(0x40)\n      dup1\n      dup4\n      sub\n      dup2\n      0x00\n      dup8\n      dup1\n      extcodesize\n      iszero\n      dup1\n      iszero\n      tag_127\n      jumpi\n      0x00\n      dup1\n      revert\n    tag_127:\n      pop\n      gas\n      call\n      iszero\n      dup1\n      iszero\n      tag_129\n      jumpi\n      returndatasize\n      0x00\n      dup1\n      returndatacopy\n      revert(0x00, returndatasize)\n    tag_129:\n      pop\n      pop\n      pop\n      pop\n      mload(0x40)\n      returndatasize\n      not(0x1f)\n      0x1f\n      dup3\n      add\n      and\n      dup3\n      add\n      dup1\n      0x40\n      mstore\n      pop\n      dup2\n      add\n      swap1\n      tag_130\n      swap2\n      swap1\n      tag_131\n      jump\t// in\n    tag_130:\n      pop\n        /* \"nft-staking-with-infinite-rewards/nft-staking-with-infinite-rewards.sol\":3531:3532  _ */\n      pop\n      pop\n      pop\n        /* \"nft-staking-with-infinite-rewards/nft-staking-with-infinite-rewards.sol\":4677:5227  function redeem() external update(_msgSender()) {\r... */\n      pop\n      jump\t// out\n        /* \"nft-staking-with-infinite-rewards/nft-staking-with-infinite-rewards.sol\":2450:2475  IERC20 public rewardToken */\n    tag_52:\n      0x01\n      0x00\n      swap1\n      sload\n      swap1\n      0x0100\n      exp\n      swap1\n      div\n      0xffffffffffffffffffffffffffffffffffffffff\n      and\n      dup2\n      jump\t// out\n        /* \"nft-staking-with-infinite-rewards/nft-staking-with-infinite-rewards.sol\":2482:2509  address public rewardWallet */\n    tag_56:\n      0x02\n      0x00\n      swap1\n      sload\n      swap1\n      0x0100\n      exp\n      swap1\n      div\n      0xffffffffffffffffffffffffffffffffffffffff\n      and\n      dup2\n      jump\t// out\n        /* \"nft-staking-with-infinite-rewards/@openzeppelin/contracts/utils/Context.sol\":1912:2008  function _msgSender() internal view virtual returns (address) {... */\n    tag_75:\n        /* \"nft-staking-with-infinite-rewards/@openzeppelin/contracts/utils/Context.sol\":1965:1972  address */\n      0x00\n        /* \"nft-staking-with-infinite-rewards/@openzeppelin/contracts/utils/Context.sol\":1991:2001  msg.sender */\n      caller\n        /* \"nft-staking-with-infinite-rewards/@openzeppelin/contracts/utils/Context.sol\":1984:2001  return msg.sender */\n      swap1\n      pop\n        /* \"nft-staking-with-infinite-rewards/@openzeppelin/contracts/utils/Context.sol\":1912:2008  function _msgSender() internal view virtual returns (address) {... */\n      swap1\n      jump\t// out\n        /* \"#utility.yul\":7:146   */\n    tag_134:\n      0x00\n        /* \"#utility.yul\":91:97   */\n      dup2\n        /* \"#utility.yul\":78:98   */\n      calldataload\n        /* \"#utility.yul\":69:98   */\n      swap1\n      pop\n        /* \"#utility.yul\":107:140   */\n      tag_136\n        /* \"#utility.yul\":134:139   */\n      dup2\n        /* \"#utility.yul\":107:140   */\n      tag_137\n      jump\t// in\n    tag_136:\n        /* \"#utility.yul\":59:146   */\n      swap3\n      swap2\n      pop\n      pop\n      jump\t// out\n        /* \"#utility.yul\":152:289   */\n    tag_138:\n      0x00\n        /* \"#utility.yul\":237:243   */\n      dup2\n        /* \"#utility.yul\":231:244   */\n      mload\n        /* \"#utility.yul\":222:244   */\n      swap1\n      pop\n        /* \"#utility.yul\":253:283   */\n      tag_140\n        /* \"#utility.yul\":277:282   */\n      dup2\n        /* \"#utility.yul\":253:283   */\n      tag_141\n      jump\t// in\n    tag_140:\n        /* \"#utility.yul\":212:289   */\n      swap3\n      swap2\n      pop\n      pop\n      jump\t// out\n        /* \"#utility.yul\":308:659   */\n    tag_142:\n      0x00\n      dup1\n        /* \"#utility.yul\":425:428   */\n      dup4\n        /* \"#utility.yul\":418:422   */\n      0x1f\n        /* \"#utility.yul\":410:416   */\n      dup5\n        /* \"#utility.yul\":406:423   */\n      add\n        /* \"#utility.yul\":402:429   */\n      slt\n        /* \"#utility.yul\":392:394   */\n      tag_144\n      jumpi\n        /* \"#utility.yul\":443:444   */\n      0x00\n        /* \"#utility.yul\":440:441   */\n      dup1\n        /* \"#utility.yul\":433:445   */\n      revert\n        /* \"#utility.yul\":392:394   */\n    tag_144:\n        /* \"#utility.yul\":479:485   */\n      dup3\n        /* \"#utility.yul\":466:486   */\n      calldataload\n        /* \"#utility.yul\":456:486   */\n      swap1\n      pop\n        /* \"#utility.yul\":509:527   */\n      0xffffffffffffffff\n        /* \"#utility.yul\":501:507   */\n      dup2\n        /* \"#utility.yul\":498:528   */\n      gt\n        /* \"#utility.yul\":495:497   */\n      iszero\n      tag_145\n      jumpi\n        /* \"#utility.yul\":541:542   */\n      0x00\n        /* \"#utility.yul\":538:539   */\n      dup1\n        /* \"#utility.yul\":531:543   */\n      revert\n        /* \"#utility.yul\":495:497   */\n    tag_145:\n        /* \"#utility.yul\":578:582   */\n      0x20\n        /* \"#utility.yul\":570:576   */\n      dup4\n        /* \"#utility.yul\":566:583   */\n      add\n        /* \"#utility.yul\":554:583   */\n      swap2\n      pop\n        /* \"#utility.yul\":632:635   */\n      dup4\n        /* \"#utility.yul\":624:628   */\n      0x01\n        /* \"#utility.yul\":616:622   */\n      dup3\n        /* \"#utility.yul\":612:629   */\n      mul\n        /* \"#utility.yul\":602:610   */\n      dup4\n        /* \"#utility.yul\":598:630   */\n      add\n        /* \"#utility.yul\":595:636   */\n      gt\n        /* \"#utility.yul\":592:594   */\n      iszero\n      tag_146\n      jumpi\n        /* \"#utility.yul\":649:650   */\n      0x00\n        /* \"#utility.yul\":646:647   */\n      dup1\n        /* \"#utility.yul\":639:651   */\n      revert\n        /* \"#utility.yul\":592:594   */\n    tag_146:\n        /* \"#utility.yul\":382:659   */\n      swap3\n      pop\n      swap3\n      swap1\n      pop\n      jump\t// out\n        /* \"#utility.yul\":665:804   */\n    tag_147:\n      0x00\n        /* \"#utility.yul\":749:755   */\n      dup2\n        /* \"#utility.yul\":736:756   */\n      calldataload\n        /* \"#utility.yul\":727:756   */\n      swap1\n      pop\n        /* \"#utility.yul\":765:798   */\n      tag_149\n        /* \"#utility.yul\":792:797   */\n      dup2\n        /* \"#utility.yul\":765:798   */\n      tag_150\n      jump\t// in\n    tag_149:\n        /* \"#utility.yul\":717:804   */\n      swap3\n      swap2\n      pop\n      pop\n      jump\t// out\n        /* \"#utility.yul\":810:953   */\n    tag_151:\n      0x00\n        /* \"#utility.yul\":898:904   */\n      dup2\n        /* \"#utility.yul\":892:905   */\n      mload\n        /* \"#utility.yul\":883:905   */\n      swap1\n      pop\n        /* \"#utility.yul\":914:947   */\n      tag_153\n        /* \"#utility.yul\":941:946   */\n      dup2\n        /* \"#utility.yul\":914:947   */\n      tag_150\n      jump\t// in\n    tag_153:\n        /* \"#utility.yul\":873:953   */\n      swap3\n      swap2\n      pop\n      pop\n      jump\t// out\n        /* \"#utility.yul\":959:1221   */\n    tag_17:\n      0x00\n        /* \"#utility.yul\":1067:1069   */\n      0x20\n        /* \"#utility.yul\":1055:1064   */\n      dup3\n        /* \"#utility.yul\":1046:1053   */\n      dup5\n        /* \"#utility.yul\":1042:1065   */\n      sub\n        /* \"#utility.yul\":1038:1070   */\n      slt\n        /* \"#utility.yul\":1035:1037   */\n      iszero\n      tag_155\n      jumpi\n        /* \"#utility.yul\":1083:1084   */\n      0x00\n        /* \"#utility.yul\":1080:1081   */\n      dup1\n        /* \"#utility.yul\":1073:1085   */\n      revert\n        /* \"#utility.yul\":1035:1037   */\n    tag_155:\n        /* \"#utility.yul\":1126:1127   */\n      0x00\n        /* \"#utility.yul\":1151:1204   */\n      tag_156\n        /* \"#utility.yul\":1196:1203   */\n      dup5\n        /* \"#utility.yul\":1187:1193   */\n      dup3\n        /* \"#utility.yul\":1176:1185   */\n      dup6\n        /* \"#utility.yul\":1172:1194   */\n      add\n        /* \"#utility.yul\":1151:1204   */\n      tag_134\n      jump\t// in\n    tag_156:\n        /* \"#utility.yul\":1141:1204   */\n      swap2\n      pop\n        /* \"#utility.yul\":1097:1214   */\n      pop\n        /* \"#utility.yul\":1025:1221   */\n      swap3\n      swap2\n      pop\n      pop\n      jump\t// out\n        /* \"#utility.yul\":1227:2056   */\n    tag_23:\n      0x00\n      dup1\n      0x00\n      dup1\n      0x00\n        /* \"#utility.yul\":1405:1408   */\n      0x80\n        /* \"#utility.yul\":1393:1402   */\n      dup7\n        /* \"#utility.yul\":1384:1391   */\n      dup9\n        /* \"#utility.yul\":1380:1403   */\n      sub\n        /* \"#utility.yul\":1376:1409   */\n      slt\n        /* \"#utility.yul\":1373:1375   */\n      iszero\n      tag_158\n      jumpi\n        /* \"#utility.yul\":1422:1423   */\n      0x00\n        /* \"#utility.yul\":1419:1420   */\n      dup1\n        /* \"#utility.yul\":1412:1424   */\n      revert\n        /* \"#utility.yul\":1373:1375   */\n    tag_158:\n        /* \"#utility.yul\":1465:1466   */\n      0x00\n        /* \"#utility.yul\":1490:1543   */\n      tag_159\n        /* \"#utility.yul\":1535:1542   */\n      dup9\n        /* \"#utility.yul\":1526:1532   */\n      dup3\n        /* \"#utility.yul\":1515:1524   */\n      dup10\n        /* \"#utility.yul\":1511:1533   */\n      add\n        /* \"#utility.yul\":1490:1543   */\n      tag_134\n      jump\t// in\n    tag_159:\n        /* \"#utility.yul\":1480:1543   */\n      swap6\n      pop\n        /* \"#utility.yul\":1436:1553   */\n      pop\n        /* \"#utility.yul\":1592:1594   */\n      0x20\n        /* \"#utility.yul\":1618:1671   */\n      tag_160\n        /* \"#utility.yul\":1663:1670   */\n      dup9\n        /* \"#utility.yul\":1654:1660   */\n      dup3\n        /* \"#utility.yul\":1643:1652   */\n      dup10\n        /* \"#utility.yul\":1639:1661   */\n      add\n        /* \"#utility.yul\":1618:1671   */\n      tag_134\n      jump\t// in\n    tag_160:\n        /* \"#utility.yul\":1608:1671   */\n      swap5\n      pop\n        /* \"#utility.yul\":1563:1681   */\n      pop\n        /* \"#utility.yul\":1720:1722   */\n      0x40\n        /* \"#utility.yul\":1746:1799   */\n      tag_161\n        /* \"#utility.yul\":1791:1798   */\n      dup9\n        /* \"#utility.yul\":1782:1788   */\n      dup3\n        /* \"#utility.yul\":1771:1780   */\n      dup10\n        /* \"#utility.yul\":1767:1789   */\n      add\n        /* \"#utility.yul\":1746:1799   */\n      tag_147\n      jump\t// in\n    tag_161:\n        /* \"#utility.yul\":1736:1799   */\n      swap4\n      pop\n        /* \"#utility.yul\":1691:1809   */\n      pop\n        /* \"#utility.yul\":1876:1878   */\n      0x60\n        /* \"#utility.yul\":1865:1874   */\n      dup7\n        /* \"#utility.yul\":1861:1879   */\n      add\n        /* \"#utility.yul\":1848:1880   */\n      calldataload\n        /* \"#utility.yul\":1907:1925   */\n      0xffffffffffffffff\n        /* \"#utility.yul\":1899:1905   */\n      dup2\n        /* \"#utility.yul\":1896:1926   */\n      gt\n        /* \"#utility.yul\":1893:1895   */\n      iszero\n      tag_162\n      jumpi\n        /* \"#utility.yul\":1939:1940   */\n      0x00\n        /* \"#utility.yul\":1936:1937   */\n      dup1\n        /* \"#utility.yul\":1929:1941   */\n      revert\n        /* \"#utility.yul\":1893:1895   */\n    tag_162:\n        /* \"#utility.yul\":1975:2039   */\n      tag_163\n        /* \"#utility.yul\":2031:2038   */\n      dup9\n        /* \"#utility.yul\":2022:2028   */\n      dup3\n        /* \"#utility.yul\":2011:2020   */\n      dup10\n        /* \"#utility.yul\":2007:2029   */\n      add\n        /* \"#utility.yul\":1975:2039   */\n      tag_142\n      jump\t// in\n    tag_163:\n        /* \"#utility.yul\":1957:2039   */\n      swap3\n      pop\n      swap3\n      pop\n        /* \"#utility.yul\":1819:2049   */\n      pop\n        /* \"#utility.yul\":1363:2056   */\n      swap3\n      swap6\n      pop\n      swap3\n      swap6\n      swap1\n      swap4\n      pop\n      jump\t// out\n        /* \"#utility.yul\":2062:2340   */\n    tag_131:\n      0x00\n        /* \"#utility.yul\":2178:2180   */\n      0x20\n        /* \"#utility.yul\":2166:2175   */\n      dup3\n        /* \"#utility.yul\":2157:2164   */\n      dup5\n        /* \"#utility.yul\":2153:2176   */\n      sub\n        /* \"#utility.yul\":2149:2181   */\n      slt\n        /* \"#utility.yul\":2146:2148   */\n      iszero\n      tag_165\n      jumpi\n        /* \"#utility.yul\":2194:2195   */\n      0x00\n        /* \"#utility.yul\":2191:2192   */\n      dup1\n        /* \"#utility.yul\":2184:2196   */\n      revert\n        /* \"#utility.yul\":2146:2148   */\n    tag_165:\n        /* \"#utility.yul\":2237:2238   */\n      0x00\n        /* \"#utility.yul\":2262:2323   */\n      tag_166\n        /* \"#utility.yul\":2315:2322   */\n      dup5\n        /* \"#utility.yul\":2306:2312   */\n      dup3\n        /* \"#utility.yul\":2295:2304   */\n      dup6\n        /* \"#utility.yul\":2291:2313   */\n      add\n        /* \"#utility.yul\":2262:2323   */\n      tag_138\n      jump\t// in\n    tag_166:\n        /* \"#utility.yul\":2252:2323   */\n      swap2\n      pop\n        /* \"#utility.yul\":2208:2333   */\n      pop\n        /* \"#utility.yul\":2136:2340   */\n      swap3\n      swap2\n      pop\n      pop\n      jump\t// out\n        /* \"#utility.yul\":2346:2608   */\n    tag_36:\n      0x00\n        /* \"#utility.yul\":2454:2456   */\n      0x20\n        /* \"#utility.yul\":2442:2451   */\n      dup3\n        /* \"#utility.yul\":2433:2440   */\n      dup5\n        /* \"#utility.yul\":2429:2452   */\n      sub\n        /* \"#utility.yul\":2425:2457   */\n      slt\n        /* \"#utility.yul\":2422:2424   */\n      iszero\n      tag_168\n      jumpi\n        /* \"#utility.yul\":2470:2471   */\n      0x00\n        /* \"#utility.yul\":2467:2468   */\n      dup1\n        /* \"#utility.yul\":2460:2472   */\n      revert\n        /* \"#utility.yul\":2422:2424   */\n    tag_168:\n        /* \"#utility.yul\":2513:2514   */\n      0x00\n        /* \"#utility.yul\":2538:2591   */\n      tag_169\n        /* \"#utility.yul\":2583:2590   */\n      dup5\n        /* \"#utility.yul\":2574:2580   */\n      dup3\n        /* \"#utility.yul\":2563:2572   */\n      dup6\n        /* \"#utility.yul\":2559:2581   */\n      add\n        /* \"#utility.yul\":2538:2591   */\n      tag_147\n      jump\t// in\n    tag_169:\n        /* \"#utility.yul\":2528:2591   */\n      swap2\n      pop\n        /* \"#utility.yul\":2484:2601   */\n      pop\n        /* \"#utility.yul\":2412:2608   */\n      swap3\n      swap2\n      pop\n      pop\n      jump\t// out\n        /* \"#utility.yul\":2614:2898   */\n    tag_113:\n      0x00\n        /* \"#utility.yul\":2733:2735   */\n      0x20\n        /* \"#utility.yul\":2721:2730   */\n      dup3\n        /* \"#utility.yul\":2712:2719   */\n      dup5\n        /* \"#utility.yul\":2708:2731   */\n      sub\n        /* \"#utility.yul\":2704:2736   */\n      slt\n        /* \"#utility.yul\":2701:2703   */\n      iszero\n      tag_171\n      jumpi\n        /* \"#utility.yul\":2749:2750   */\n      0x00\n        /* \"#utility.yul\":2746:2747   */\n      dup1\n        /* \"#utility.yul\":2739:2751   */\n      revert\n        /* \"#utility.yul\":2701:2703   */\n    tag_171:\n        /* \"#utility.yul\":2792:2793   */\n      0x00\n        /* \"#utility.yul\":2817:2881   */\n      tag_172\n        /* \"#utility.yul\":2873:2880   */\n      dup5\n        /* \"#utility.yul\":2864:2870   */\n      dup3\n        /* \"#utility.yul\":2853:2862   */\n      dup6\n        /* \"#utility.yul\":2849:2871   */\n      add\n        /* \"#utility.yul\":2817:2881   */\n      tag_151\n      jump\t// in\n    tag_172:\n        /* \"#utility.yul\":2807:2881   */\n      swap2\n      pop\n        /* \"#utility.yul\":2763:2891   */\n      pop\n        /* \"#utility.yul\":2691:2898   */\n      swap3\n      swap2\n      pop\n      pop\n      jump\t// out\n        /* \"#utility.yul\":2904:3022   */\n    tag_173:\n        /* \"#utility.yul\":2991:3015   */\n      tag_175\n        /* \"#utility.yul\":3009:3014   */\n      dup2\n        /* \"#utility.yul\":2991:3015   */\n      tag_176\n      jump\t// in\n    tag_175:\n        /* \"#utility.yul\":2986:2989   */\n      dup3\n        /* \"#utility.yul\":2979:3016   */\n      mstore\n        /* \"#utility.yul\":2969:3022   */\n      pop\n      pop\n      jump\t// out\n        /* \"#utility.yul\":3028:3143   */\n    tag_177:\n        /* \"#utility.yul\":3113:3136   */\n      tag_179\n        /* \"#utility.yul\":3130:3135   */\n      dup2\n        /* \"#utility.yul\":3113:3136   */\n      tag_180\n      jump\t// in\n    tag_179:\n        /* \"#utility.yul\":3108:3111   */\n      dup3\n        /* \"#utility.yul\":3101:3137   */\n      mstore\n        /* \"#utility.yul\":3091:3143   */\n      pop\n      pop\n      jump\t// out\n        /* \"#utility.yul\":3149:3306   */\n    tag_181:\n        /* \"#utility.yul\":3249:3299   */\n      tag_183\n        /* \"#utility.yul\":3293:3298   */\n      dup2\n        /* \"#utility.yul\":3249:3299   */\n      tag_184\n      jump\t// in\n    tag_183:\n        /* \"#utility.yul\":3244:3247   */\n      dup3\n        /* \"#utility.yul\":3237:3300   */\n      mstore\n        /* \"#utility.yul\":3227:3306   */\n      pop\n      pop\n      jump\t// out\n        /* \"#utility.yul\":3312:3473   */\n    tag_185:\n        /* \"#utility.yul\":3414:3466   */\n      tag_187\n        /* \"#utility.yul\":3460:3465   */\n      dup2\n        /* \"#utility.yul\":3414:3466   */\n      tag_188\n      jump\t// in\n    tag_187:\n        /* \"#utility.yul\":3409:3412   */\n      dup3\n        /* \"#utility.yul\":3402:3467   */\n      mstore\n        /* \"#utility.yul\":3392:3473   */\n      pop\n      pop\n      jump\t// out\n        /* \"#utility.yul\":3479:3794   */\n    tag_189:\n      0x00\n        /* \"#utility.yul\":3642:3709   */\n      tag_191\n        /* \"#utility.yul\":3706:3708   */\n      0x11\n        /* \"#utility.yul\":3701:3704   */\n      dup4\n        /* \"#utility.yul\":3642:3709   */\n      tag_192\n      jump\t// in\n    tag_191:\n        /* \"#utility.yul\":3635:3709   */\n      swap2\n      pop\n        /* \"#utility.yul\":3739:3758   */\n      0x4e6f7468696e6720746f2072656465656d000000000000000000000000000000\n        /* \"#utility.yul\":3735:3736   */\n      0x00\n        /* \"#utility.yul\":3730:3733   */\n      dup4\n        /* \"#utility.yul\":3726:3737   */\n      add\n        /* \"#utility.yul\":3719:3759   */\n      mstore\n        /* \"#utility.yul\":3785:3787   */\n      0x20\n        /* \"#utility.yul\":3780:3783   */\n      dup3\n        /* \"#utility.yul\":3776:3788   */\n      add\n        /* \"#utility.yul\":3769:3788   */\n      swap1\n      pop\n        /* \"#utility.yul\":3625:3794   */\n      swap2\n      swap1\n      pop\n      jump\t// out\n        /* \"#utility.yul\":3800:4118   */\n    tag_193:\n      0x00\n        /* \"#utility.yul\":3963:4030   */\n      tag_195\n        /* \"#utility.yul\":4027:4029   */\n      0x14\n        /* \"#utility.yul\":4022:4025   */\n      dup4\n        /* \"#utility.yul\":3963:4030   */\n      tag_192\n      jump\t// in\n    tag_195:\n        /* \"#utility.yul\":3956:4030   */\n      swap2\n      pop\n        /* \"#utility.yul\":4060:4082   */\n      0x546f6b656e206973206e6f74207374616b65642e000000000000000000000000\n        /* \"#utility.yul\":4056:4057   */\n      0x00\n        /* \"#utility.yul\":4051:4054   */\n      dup4\n        /* \"#utility.yul\":4047:4058   */\n      add\n        /* \"#utility.yul\":4040:4083   */\n      mstore\n        /* \"#utility.yul\":4109:4111   */\n      0x20\n        /* \"#utility.yul\":4104:4107   */\n      dup3\n        /* \"#utility.yul\":4100:4112   */\n      add\n        /* \"#utility.yul\":4093:4112   */\n      swap1\n      pop\n        /* \"#utility.yul\":3946:4118   */\n      swap2\n      swap1\n      pop\n      jump\t// out\n        /* \"#utility.yul\":4124:4489   */\n    tag_196:\n      0x00\n        /* \"#utility.yul\":4287:4354   */\n      tag_198\n        /* \"#utility.yul\":4351:4353   */\n      0x21\n        /* \"#utility.yul\":4346:4349   */\n      dup4\n        /* \"#utility.yul\":4287:4354   */\n      tag_192\n      jump\t// in\n    tag_198:\n        /* \"#utility.yul\":4280:4354   */\n      swap2\n      pop\n        /* \"#utility.yul\":4384:4418   */\n      0x436865636b20746865207265776172642077616c6c657427732062616c616e63\n        /* \"#utility.yul\":4380:4381   */\n      0x00\n        /* \"#utility.yul\":4375:4378   */\n      dup4\n        /* \"#utility.yul\":4371:4382   */\n      add\n        /* \"#utility.yul\":4364:4419   */\n      mstore\n        /* \"#utility.yul\":4450:4453   */\n      0x6500000000000000000000000000000000000000000000000000000000000000\n        /* \"#utility.yul\":4445:4447   */\n      0x20\n        /* \"#utility.yul\":4440:4443   */\n      dup4\n        /* \"#utility.yul\":4436:4448   */\n      add\n        /* \"#utility.yul\":4429:4454   */\n      mstore\n        /* \"#utility.yul\":4480:4482   */\n      0x40\n        /* \"#utility.yul\":4475:4478   */\n      dup3\n        /* \"#utility.yul\":4471:4483   */\n      add\n        /* \"#utility.yul\":4464:4483   */\n      swap1\n      pop\n        /* \"#utility.yul\":4270:4489   */\n      swap2\n      swap1\n      pop\n      jump\t// out\n        /* \"#utility.yul\":4495:4862   */\n    tag_199:\n      0x00\n        /* \"#utility.yul\":4658:4725   */\n      tag_201\n        /* \"#utility.yul\":4722:4724   */\n      0x23\n        /* \"#utility.yul\":4717:4720   */\n      dup4\n        /* \"#utility.yul\":4658:4725   */\n      tag_192\n      jump\t// in\n    tag_201:\n        /* \"#utility.yul\":4651:4725   */\n      swap2\n      pop\n        /* \"#utility.yul\":4755:4789   */\n      0x436865636b20746865207265776172642077616c6c6574277320616c6c6f7761\n        /* \"#utility.yul\":4751:4752   */\n      0x00\n        /* \"#utility.yul\":4746:4749   */\n      dup4\n        /* \"#utility.yul\":4742:4753   */\n      add\n        /* \"#utility.yul\":4735:4790   */\n      mstore\n        /* \"#utility.yul\":4821:4826   */\n      0x6e63650000000000000000000000000000000000000000000000000000000000\n        /* \"#utility.yul\":4816:4818   */\n      0x20\n        /* \"#utility.yul\":4811:4814   */\n      dup4\n        /* \"#utility.yul\":4807:4819   */\n      add\n        /* \"#utility.yul\":4800:4827   */\n      mstore\n        /* \"#utility.yul\":4853:4855   */\n      0x40\n        /* \"#utility.yul\":4848:4851   */\n      dup3\n        /* \"#utility.yul\":4844:4856   */\n      add\n        /* \"#utility.yul\":4837:4856   */\n      swap1\n      pop\n        /* \"#utility.yul\":4641:4862   */\n      swap2\n      swap1\n      pop\n      jump\t// out\n        /* \"#utility.yul\":4868:4986   */\n    tag_202:\n        /* \"#utility.yul\":4955:4979   */\n      tag_204\n        /* \"#utility.yul\":4973:4978   */\n      dup2\n        /* \"#utility.yul\":4955:4979   */\n      tag_205\n      jump\t// in\n    tag_204:\n        /* \"#utility.yul\":4950:4953   */\n      dup3\n        /* \"#utility.yul\":4943:4980   */\n      mstore\n        /* \"#utility.yul\":4933:4986   */\n      pop\n      pop\n      jump\t// out\n        /* \"#utility.yul\":4992:5214   */\n    tag_58:\n      0x00\n        /* \"#utility.yul\":5123:5125   */\n      0x20\n        /* \"#utility.yul\":5112:5121   */\n      dup3\n        /* \"#utility.yul\":5108:5126   */\n      add\n        /* \"#utility.yul\":5100:5126   */\n      swap1\n      pop\n        /* \"#utility.yul\":5136:5207   */\n      tag_207\n        /* \"#utility.yul\":5204:5205   */\n      0x00\n        /* \"#utility.yul\":5193:5202   */\n      dup4\n        /* \"#utility.yul\":5189:5206   */\n      add\n        /* \"#utility.yul\":5180:5186   */\n      dup5\n        /* \"#utility.yul\":5136:5207   */\n      tag_173\n      jump\t// in\n    tag_207:\n        /* \"#utility.yul\":5090:5214   */\n      swap3\n      swap2\n      pop\n      pop\n      jump\t// out\n        /* \"#utility.yul\":5220:5552   */\n    tag_108:\n      0x00\n        /* \"#utility.yul\":5379:5381   */\n      0x40\n        /* \"#utility.yul\":5368:5377   */\n      dup3\n        /* \"#utility.yul\":5364:5382   */\n      add\n        /* \"#utility.yul\":5356:5382   */\n      swap1\n      pop\n        /* \"#utility.yul\":5392:5463   */\n      tag_209\n        /* \"#utility.yul\":5460:5461   */\n      0x00\n        /* \"#utility.yul\":5449:5458   */\n      dup4\n        /* \"#utility.yul\":5445:5462   */\n      add\n        /* \"#utility.yul\":5436:5442   */\n      dup6\n        /* \"#utility.yul\":5392:5463   */\n      tag_173\n      jump\t// in\n    tag_209:\n        /* \"#utility.yul\":5473:5545   */\n      tag_210\n        /* \"#utility.yul\":5541:5543   */\n      0x20\n        /* \"#utility.yul\":5530:5539   */\n      dup4\n        /* \"#utility.yul\":5526:5544   */\n      add\n        /* \"#utility.yul\":5517:5523   */\n      dup5\n        /* \"#utility.yul\":5473:5545   */\n      tag_173\n      jump\t// in\n    tag_210:\n        /* \"#utility.yul\":5346:5552   */\n      swap4\n      swap3\n      pop\n      pop\n      pop\n      jump\t// out\n        /* \"#utility.yul\":5558:6000   */\n    tag_88:\n      0x00\n        /* \"#utility.yul\":5745:5747   */\n      0x60\n        /* \"#utility.yul\":5734:5743   */\n      dup3\n        /* \"#utility.yul\":5730:5748   */\n      add\n        /* \"#utility.yul\":5722:5748   */\n      swap1\n      pop\n        /* \"#utility.yul\":5758:5829   */\n      tag_212\n        /* \"#utility.yul\":5826:5827   */\n      0x00\n        /* \"#utility.yul\":5815:5824   */\n      dup4\n        /* \"#utility.yul\":5811:5828   */\n      add\n        /* \"#utility.yul\":5802:5808   */\n      dup7\n        /* \"#utility.yul\":5758:5829   */\n      tag_173\n      jump\t// in\n    tag_212:\n        /* \"#utility.yul\":5839:5911   */\n      tag_213\n        /* \"#utility.yul\":5907:5909   */\n      0x20\n        /* \"#utility.yul\":5896:5905   */\n      dup4\n        /* \"#utility.yul\":5892:5910   */\n      add\n        /* \"#utility.yul\":5883:5889   */\n      dup6\n        /* \"#utility.yul\":5839:5911   */\n      tag_173\n      jump\t// in\n    tag_213:\n        /* \"#utility.yul\":5921:5993   */\n      tag_214\n        /* \"#utility.yul\":5989:5991   */\n      0x40\n        /* \"#utility.yul\":5978:5987   */\n      dup4\n        /* \"#utility.yul\":5974:5992   */\n      add\n        /* \"#utility.yul\":5965:5971   */\n      dup5\n        /* \"#utility.yul\":5921:5993   */\n      tag_202\n      jump\t// in\n    tag_214:\n        /* \"#utility.yul\":5712:6000   */\n      swap5\n      swap4\n      pop\n      pop\n      pop\n      pop\n      jump\t// out\n        /* \"#utility.yul\":6006:6224   */\n    tag_26:\n      0x00\n        /* \"#utility.yul\":6135:6137   */\n      0x20\n        /* \"#utility.yul\":6124:6133   */\n      dup3\n        /* \"#utility.yul\":6120:6138   */\n      add\n        /* \"#utility.yul\":6112:6138   */\n      swap1\n      pop\n        /* \"#utility.yul\":6148:6217   */\n      tag_216\n        /* \"#utility.yul\":6214:6215   */\n      0x00\n        /* \"#utility.yul\":6203:6212   */\n      dup4\n        /* \"#utility.yul\":6199:6216   */\n      add\n        /* \"#utility.yul\":6190:6196   */\n      dup5\n        /* \"#utility.yul\":6148:6217   */\n      tag_177\n      jump\t// in\n    tag_216:\n        /* \"#utility.yul\":6102:6224   */\n      swap3\n      swap2\n      pop\n      pop\n      jump\t// out\n        /* \"#utility.yul\":6230:6478   */\n    tag_54:\n      0x00\n        /* \"#utility.yul\":6374:6376   */\n      0x20\n        /* \"#utility.yul\":6363:6372   */\n      dup3\n        /* \"#utility.yul\":6359:6377   */\n      add\n        /* \"#utility.yul\":6351:6377   */\n      swap1\n      pop\n        /* \"#utility.yul\":6387:6471   */\n      tag_218\n        /* \"#utility.yul\":6468:6469   */\n      0x00\n        /* \"#utility.yul\":6457:6466   */\n      dup4\n        /* \"#utility.yul\":6453:6470   */\n      add\n        /* \"#utility.yul\":6444:6450   */\n      dup5\n        /* \"#utility.yul\":6387:6471   */\n      tag_181\n      jump\t// in\n    tag_218:\n        /* \"#utility.yul\":6341:6478   */\n      swap3\n      swap2\n      pop\n      pop\n      jump\t// out\n        /* \"#utility.yul\":6484:6736   */\n    tag_41:\n      0x00\n        /* \"#utility.yul\":6630:6632   */\n      0x20\n        /* \"#utility.yul\":6619:6628   */\n      dup3\n        /* \"#utility.yul\":6615:6633   */\n      add\n        /* \"#utility.yul\":6607:6633   */\n      swap1\n      pop\n        /* \"#utility.yul\":6643:6729   */\n      tag_220\n        /* \"#utility.yul\":6726:6727   */\n      0x00\n        /* \"#utility.yul\":6715:6724   */\n      dup4\n        /* \"#utility.yul\":6711:6728   */\n      add\n        /* \"#utility.yul\":6702:6708   */\n      dup5\n        /* \"#utility.yul\":6643:6729   */\n      tag_185\n      jump\t// in\n    tag_220:\n        /* \"#utility.yul\":6597:6736   */\n      swap3\n      swap2\n      pop\n      pop\n      jump\t// out\n        /* \"#utility.yul\":6742:7161   */\n    tag_105:\n      0x00\n        /* \"#utility.yul\":6946:6948   */\n      0x20\n        /* \"#utility.yul\":6935:6944   */\n      dup3\n        /* \"#utility.yul\":6931:6949   */\n      add\n        /* \"#utility.yul\":6923:6949   */\n      swap1\n      pop\n        /* \"#utility.yul\":6995:7004   */\n      dup2\n        /* \"#utility.yul\":6989:6993   */\n      dup2\n        /* \"#utility.yul\":6985:7005   */\n      sub\n        /* \"#utility.yul\":6981:6982   */\n      0x00\n        /* \"#utility.yul\":6970:6979   */\n      dup4\n        /* \"#utility.yul\":6966:6983   */\n      add\n        /* \"#utility.yul\":6959:7006   */\n      mstore\n        /* \"#utility.yul\":7023:7154   */\n      tag_222\n        /* \"#utility.yul\":7149:7153   */\n      dup2\n        /* \"#utility.yul\":7023:7154   */\n      tag_189\n      jump\t// in\n    tag_222:\n        /* \"#utility.yul\":7015:7154   */\n      swap1\n      pop\n        /* \"#utility.yul\":6913:7161   */\n      swap2\n      swap1\n      pop\n      jump\t// out\n        /* \"#utility.yul\":7167:7586   */\n    tag_82:\n      0x00\n        /* \"#utility.yul\":7371:7373   */\n      0x20\n        /* \"#utility.yul\":7360:7369   */\n      dup3\n        /* \"#utility.yul\":7356:7374   */\n      add\n        /* \"#utility.yul\":7348:7374   */\n      swap1\n      pop\n        /* \"#utility.yul\":7420:7429   */\n      dup2\n        /* \"#utility.yul\":7414:7418   */\n      dup2\n        /* \"#utility.yul\":7410:7430   */\n      sub\n        /* \"#utility.yul\":7406:7407   */\n      0x00\n        /* \"#utility.yul\":7395:7404   */\n      dup4\n        /* \"#utility.yul\":7391:7408   */\n      add\n        /* \"#utility.yul\":7384:7431   */\n      mstore\n        /* \"#utility.yul\":7448:7579   */\n      tag_224\n        /* \"#utility.yul\":7574:7578   */\n      dup2\n        /* \"#utility.yul\":7448:7579   */\n      tag_193\n      jump\t// in\n    tag_224:\n        /* \"#utility.yul\":7440:7579   */\n      swap1\n      pop\n        /* \"#utility.yul\":7338:7586   */\n      swap2\n      swap1\n      pop\n      jump\t// out\n        /* \"#utility.yul\":7592:8011   */\n    tag_124:\n      0x00\n        /* \"#utility.yul\":7796:7798   */\n      0x20\n        /* \"#utility.yul\":7785:7794   */\n      dup3\n        /* \"#utility.yul\":7781:7799   */\n      add\n        /* \"#utility.yul\":7773:7799   */\n      swap1\n      pop\n        /* \"#utility.yul\":7845:7854   */\n      dup2\n        /* \"#utility.yul\":7839:7843   */\n      dup2\n        /* \"#utility.yul\":7835:7855   */\n      sub\n        /* \"#utility.yul\":7831:7832   */\n      0x00\n        /* \"#utility.yul\":7820:7829   */\n      dup4\n        /* \"#utility.yul\":7816:7833   */\n      add\n        /* \"#utility.yul\":7809:7856   */\n      mstore\n        /* \"#utility.yul\":7873:8004   */\n      tag_226\n        /* \"#utility.yul\":7999:8003   */\n      dup2\n        /* \"#utility.yul\":7873:8004   */\n      tag_196\n      jump\t// in\n    tag_226:\n        /* \"#utility.yul\":7865:8004   */\n      swap1\n      pop\n        /* \"#utility.yul\":7763:8011   */\n      swap2\n      swap1\n      pop\n      jump\t// out\n        /* \"#utility.yul\":8017:8436   */\n    tag_121:\n      0x00\n        /* \"#utility.yul\":8221:8223   */\n      0x20\n        /* \"#utility.yul\":8210:8219   */\n      dup3\n        /* \"#utility.yul\":8206:8224   */\n      add\n        /* \"#utility.yul\":8198:8224   */\n      swap1\n      pop\n        /* \"#utility.yul\":8270:8279   */\n      dup2\n        /* \"#utility.yul\":8264:8268   */\n      dup2\n        /* \"#utility.yul\":8260:8280   */\n      sub\n        /* \"#utility.yul\":8256:8257   */\n      0x00\n        /* \"#utility.yul\":8245:8254   */\n      dup4\n        /* \"#utility.yul\":8241:8258   */\n      add\n        /* \"#utility.yul\":8234:8281   */\n      mstore\n        /* \"#utility.yul\":8298:8429   */\n      tag_228\n        /* \"#utility.yul\":8424:8428   */\n      dup2\n        /* \"#utility.yul\":8298:8429   */\n      tag_199\n      jump\t// in\n    tag_228:\n        /* \"#utility.yul\":8290:8429   */\n      swap1\n      pop\n        /* \"#utility.yul\":8188:8436   */\n      swap2\n      swap1\n      pop\n      jump\t// out\n        /* \"#utility.yul\":8442:8664   */\n    tag_20:\n      0x00\n        /* \"#utility.yul\":8573:8575   */\n      0x20\n        /* \"#utility.yul\":8562:8571   */\n      dup3\n        /* \"#utility.yul\":8558:8576   */\n      add\n        /* \"#utility.yul\":8550:8576   */\n      swap1\n      pop\n        /* \"#utility.yul\":8586:8657   */\n      tag_230\n        /* \"#utility.yul\":8654:8655   */\n      0x00\n        /* \"#utility.yul\":8643:8652   */\n      dup4\n        /* \"#utility.yul\":8639:8656   */\n      add\n        /* \"#utility.yul\":8630:8636   */\n      dup5\n        /* \"#utility.yul\":8586:8657   */\n      tag_202\n      jump\t// in\n    tag_230:\n        /* \"#utility.yul\":8540:8664   */\n      swap3\n      swap2\n      pop\n      pop\n      jump\t// out\n        /* \"#utility.yul\":8670:8839   */\n    tag_192:\n      0x00\n        /* \"#utility.yul\":8788:8794   */\n      dup3\n        /* \"#utility.yul\":8783:8786   */\n      dup3\n        /* \"#utility.yul\":8776:8795   */\n      mstore\n        /* \"#utility.yul\":8828:8832   */\n      0x20\n        /* \"#utility.yul\":8823:8826   */\n      dup3\n        /* \"#utility.yul\":8819:8833   */\n      add\n        /* \"#utility.yul\":8804:8833   */\n      swap1\n      pop\n        /* \"#utility.yul\":8766:8839   */\n      swap3\n      swap2\n      pop\n      pop\n      jump\t// out\n        /* \"#utility.yul\":8845:9150   */\n    tag_68:\n      0x00\n        /* \"#utility.yul\":8904:8924   */\n      tag_233\n        /* \"#utility.yul\":8922:8923   */\n      dup3\n        /* \"#utility.yul\":8904:8924   */\n      tag_205\n      jump\t// in\n    tag_233:\n        /* \"#utility.yul\":8899:8924   */\n      swap2\n      pop\n        /* \"#utility.yul\":8938:8958   */\n      tag_234\n        /* \"#utility.yul\":8956:8957   */\n      dup4\n        /* \"#utility.yul\":8938:8958   */\n      tag_205\n      jump\t// in\n    tag_234:\n        /* \"#utility.yul\":8933:8958   */\n      swap3\n      pop\n        /* \"#utility.yul\":9092:9093   */\n      dup3\n        /* \"#utility.yul\":9024:9090   */\n      0xffffffffffffffffffffffffffffffffffffffffffffffffffffffffffffffff\n        /* \"#utility.yul\":9020:9094   */\n      sub\n        /* \"#utility.yul\":9017:9018   */\n      dup3\n        /* \"#utility.yul\":9014:9095   */\n      gt\n        /* \"#utility.yul\":9011:9013   */\n      iszero\n      tag_235\n      jumpi\n        /* \"#utility.yul\":9098:9116   */\n      tag_236\n      tag_237\n      jump\t// in\n    tag_236:\n        /* \"#utility.yul\":9011:9013   */\n    tag_235:\n        /* \"#utility.yul\":9142:9143   */\n      dup3\n        /* \"#utility.yul\":9139:9140   */\n      dup3\n        /* \"#utility.yul\":9135:9144   */\n      add\n        /* \"#utility.yul\":9128:9144   */\n      swap1\n      pop\n        /* \"#utility.yul\":8889:9150   */\n      swap3\n      swap2\n      pop\n      pop\n      jump\t// out\n        /* \"#utility.yul\":9156:9341   */\n    tag_66:\n      0x00\n        /* \"#utility.yul\":9213:9233   */\n      tag_239\n        /* \"#utility.yul\":9231:9232   */\n      dup3\n        /* \"#utility.yul\":9213:9233   */\n      tag_205\n      jump\t// in\n    tag_239:\n        /* \"#utility.yul\":9208:9233   */\n      swap2\n      pop\n        /* \"#utility.yul\":9247:9267   */\n      tag_240\n        /* \"#utility.yul\":9265:9266   */\n      dup4\n        /* \"#utility.yul\":9247:9267   */\n      tag_205\n      jump\t// in\n    tag_240:\n        /* \"#utility.yul\":9242:9267   */\n      swap3\n      pop\n        /* \"#utility.yul\":9286:9287   */\n      dup3\n        /* \"#utility.yul\":9276:9278   */\n      tag_241\n      jumpi\n        /* \"#utility.yul\":9291:9309   */\n      tag_242\n      tag_243\n      jump\t// in\n    tag_242:\n        /* \"#utility.yul\":9276:9278   */\n    tag_241:\n        /* \"#utility.yul\":9333:9334   */\n      dup3\n        /* \"#utility.yul\":9330:9331   */\n      dup3\n        /* \"#utility.yul\":9326:9335   */\n      div\n        /* \"#utility.yul\":9321:9335   */\n      swap1\n      pop\n        /* \"#utility.yul\":9198:9341   */\n      swap3\n      swap2\n      pop\n      pop\n      jump\t// out\n        /* \"#utility.yul\":9347:9695   */\n    tag_63:\n      0x00\n        /* \"#utility.yul\":9410:9430   */\n      tag_245\n        /* \"#utility.yul\":9428:9429   */\n      dup3\n        /* \"#utility.yul\":9410:9430   */\n      tag_205\n      jump\t// in\n    tag_245:\n        /* \"#utility.yul\":9405:9430   */\n      swap2\n      pop\n        /* \"#utility.yul\":9444:9464   */\n      tag_246\n        /* \"#utility.yul\":9462:9463   */\n      dup4\n        /* \"#utility.yul\":9444:9464   */\n      tag_205\n      jump\t// in\n    tag_246:\n        /* \"#utility.yul\":9439:9464   */\n      swap3\n      pop\n        /* \"#utility.yul\":9632:9633   */\n      dup2\n        /* \"#utility.yul\":9564:9630   */\n      0xffffffffffffffffffffffffffffffffffffffffffffffffffffffffffffffff\n        /* \"#utility.yul\":9560:9634   */\n      div\n        /* \"#utility.yul\":9557:9558   */\n      dup4\n        /* \"#utility.yul\":9554:9635   */\n      gt\n        /* \"#utility.yul\":9549:9550   */\n      dup3\n        /* \"#utility.yul\":9542:9551   */\n      iszero\n        /* \"#utility.yul\":9535:9552   */\n      iszero\n        /* \"#utility.yul\":9531:9636   */\n      and\n        /* \"#utility.yul\":9528:9530   */\n      iszero\n      tag_247\n      jumpi\n        /* \"#utility.yul\":9639:9657   */\n      tag_248\n      tag_237\n      jump\t// in\n    tag_248:\n        /* \"#utility.yul\":9528:9530   */\n    tag_247:\n        /* \"#utility.yul\":9687:9688   */\n      dup3\n        /* \"#utility.yul\":9684:9685   */\n      dup3\n        /* \"#utility.yul\":9680:9689   */\n      mul\n        /* \"#utility.yul\":9669:9689   */\n      swap1\n      pop\n        /* \"#utility.yul\":9395:9695   */\n      swap3\n      swap2\n      pop\n      pop\n      jump\t// out\n        /* \"#utility.yul\":9701:9892   */\n    tag_61:\n      0x00\n        /* \"#utility.yul\":9761:9781   */\n      tag_250\n        /* \"#utility.yul\":9779:9780   */\n      dup3\n        /* \"#utility.yul\":9761:9781   */\n      tag_205\n      jump\t// in\n    tag_250:\n        /* \"#utility.yul\":9756:9781   */\n      swap2\n      pop\n        /* \"#utility.yul\":9795:9815   */\n      tag_251\n        /* \"#utility.yul\":9813:9814   */\n      dup4\n        /* \"#utility.yul\":9795:9815   */\n      tag_205\n      jump\t// in\n    tag_251:\n        /* \"#utility.yul\":9790:9815   */\n      swap3\n      pop\n        /* \"#utility.yul\":9834:9835   */\n      dup3\n        /* \"#utility.yul\":9831:9832   */\n      dup3\n        /* \"#utility.yul\":9828:9836   */\n      lt\n        /* \"#utility.yul\":9825:9827   */\n      iszero\n      tag_252\n      jumpi\n        /* \"#utility.yul\":9839:9857   */\n      tag_253\n      tag_237\n      jump\t// in\n    tag_253:\n        /* \"#utility.yul\":9825:9827   */\n    tag_252:\n        /* \"#utility.yul\":9884:9885   */\n      dup3\n        /* \"#utility.yul\":9881:9882   */\n      dup3\n        /* \"#utility.yul\":9877:9886   */\n      sub\n        /* \"#utility.yul\":9869:9886   */\n      swap1\n      pop\n        /* \"#utility.yul\":9746:9892   */\n      swap3\n      swap2\n      pop\n      pop\n      jump\t// out\n        /* \"#utility.yul\":9898:9994   */\n    tag_176:\n      0x00\n        /* \"#utility.yul\":9964:9988   */\n      tag_255\n        /* \"#utility.yul\":9982:9987   */\n      dup3\n        /* \"#utility.yul\":9964:9988   */\n      tag_256\n      jump\t// in\n    tag_255:\n        /* \"#utility.yul\":9953:9988   */\n      swap1\n      pop\n        /* \"#utility.yul\":9943:9994   */\n      swap2\n      swap1\n      pop\n      jump\t// out\n        /* \"#utility.yul\":10000:10090   */\n    tag_257:\n      0x00\n        /* \"#utility.yul\":10077:10082   */\n      dup2\n        /* \"#utility.yul\":10070:10083   */\n      iszero\n        /* \"#utility.yul\":10063:10084   */\n      iszero\n        /* \"#utility.yul\":10052:10084   */\n      swap1\n      pop\n        /* \"#utility.yul\":10042:10090   */\n      swap2\n      swap1\n      pop\n      jump\t// out\n        /* \"#utility.yul\":10096:10245   */\n    tag_180:\n      0x00\n        /* \"#utility.yul\":10172:10238   */\n      0xffffffff00000000000000000000000000000000000000000000000000000000\n        /* \"#utility.yul\":10165:10170   */\n      dup3\n        /* \"#utility.yul\":10161:10239   */\n      and\n        /* \"#utility.yul\":10150:10239   */\n      swap1\n      pop\n        /* \"#utility.yul\":10140:10245   */\n      swap2\n      swap1\n      pop\n      jump\t// out\n        /* \"#utility.yul\":10251:10377   */\n    tag_256:\n      0x00\n        /* \"#utility.yul\":10328:10370   */\n      0xffffffffffffffffffffffffffffffffffffffff\n        /* \"#utility.yul\":10321:10326   */\n      dup3\n        /* \"#utility.yul\":10317:10371   */\n      and\n        /* \"#utility.yul\":10306:10371   */\n      swap1\n      pop\n        /* \"#utility.yul\":10296:10377   */\n      swap2\n      swap1\n      pop\n      jump\t// out\n        /* \"#utility.yul\":10383:10460   */\n    tag_205:\n      0x00\n        /* \"#utility.yul\":10449:10454   */\n      dup2\n        /* \"#utility.yul\":10438:10454   */\n      swap1\n      pop\n        /* \"#utility.yul\":10428:10460   */\n      swap2\n      swap1\n      pop\n      jump\t// out\n        /* \"#utility.yul\":10466:10618   */\n    tag_184:\n      0x00\n        /* \"#utility.yul\":10562:10612   */\n      tag_263\n        /* \"#utility.yul\":10606:10611   */\n      dup3\n        /* \"#utility.yul\":10562:10612   */\n      tag_264\n      jump\t// in\n    tag_263:\n        /* \"#utility.yul\":10549:10612   */\n      swap1\n      pop\n        /* \"#utility.yul\":10539:10618   */\n      swap2\n      swap1\n      pop\n      jump\t// out\n        /* \"#utility.yul\":10624:10750   */\n    tag_264:\n      0x00\n        /* \"#utility.yul\":10720:10744   */\n      tag_266\n        /* \"#utility.yul\":10738:10743   */\n      dup3\n        /* \"#utility.yul\":10720:10744   */\n      tag_256\n      jump\t// in\n    tag_266:\n        /* \"#utility.yul\":10707:10744   */\n      swap1\n      pop\n        /* \"#utility.yul\":10697:10750   */\n      swap2\n      swap1\n      pop\n      jump\t// out\n        /* \"#utility.yul\":10756:10912   */\n    tag_188:\n      0x00\n        /* \"#utility.yul\":10854:10906   */\n      tag_268\n        /* \"#utility.yul\":10900:10905   */\n      dup3\n        /* \"#utility.yul\":10854:10906   */\n      tag_269\n      jump\t// in\n    tag_268:\n        /* \"#utility.yul\":10841:10906   */\n      swap1\n      pop\n        /* \"#utility.yul\":10831:10912   */\n      swap2\n      swap1\n      pop\n      jump\t// out\n        /* \"#utility.yul\":10918:11046   */\n    tag_269:\n      0x00\n        /* \"#utility.yul\":11016:11040   */\n      tag_271\n        /* \"#utility.yul\":11034:11039   */\n      dup3\n        /* \"#utility.yul\":11016:11040   */\n      tag_256\n      jump\t// in\n    tag_271:\n        /* \"#utility.yul\":11003:11040   */\n      swap1\n      pop\n        /* \"#utility.yul\":10993:11046   */\n      swap2\n      swap1\n      pop\n      jump\t// out\n        /* \"#utility.yul\":11052:11223   */\n    tag_85:\n      0x00\n        /* \"#utility.yul\":11114:11138   */\n      tag_273\n        /* \"#utility.yul\":11132:11137   */\n      dup3\n        /* \"#utility.yul\":11114:11138   */\n      tag_205\n      jump\t// in\n    tag_273:\n        /* \"#utility.yul\":11105:11138   */\n      swap2\n      pop\n        /* \"#utility.yul\":11160:11164   */\n      0x00\n        /* \"#utility.yul\":11153:11158   */\n      dup3\n        /* \"#utility.yul\":11150:11165   */\n      eq\n        /* \"#utility.yul\":11147:11149   */\n      iszero\n      tag_274\n      jumpi\n        /* \"#utility.yul\":11168:11186   */\n      tag_275\n      tag_237\n      jump\t// in\n    tag_275:\n        /* \"#utility.yul\":11147:11149   */\n    tag_274:\n        /* \"#utility.yul\":11215:11216   */\n      0x01\n        /* \"#utility.yul\":11208:11213   */\n      dup3\n        /* \"#utility.yul\":11204:11217   */\n      sub\n        /* \"#utility.yul\":11197:11217   */\n      swap1\n      pop\n        /* \"#utility.yul\":11095:11223   */\n      swap2\n      swap1\n      pop\n      jump\t// out\n        /* \"#utility.yul\":11229:11462   */\n    tag_73:\n      0x00\n        /* \"#utility.yul\":11291:11315   */\n      tag_277\n        /* \"#utility.yul\":11309:11314   */\n      dup3\n        /* \"#utility.yul\":11291:11315   */\n      tag_205\n      jump\t// in\n    tag_277:\n        /* \"#utility.yul\":11282:11315   */\n      swap2\n      pop\n        /* \"#utility.yul\":11337:11403   */\n      0xffffffffffffffffffffffffffffffffffffffffffffffffffffffffffffffff\n        /* \"#utility.yul\":11330:11335   */\n      dup3\n        /* \"#utility.yul\":11327:11404   */\n      eq\n        /* \"#utility.yul\":11324:11326   */\n      iszero\n      tag_278\n      jumpi\n        /* \"#utility.yul\":11407:11425   */\n      tag_279\n      tag_237\n      jump\t// in\n    tag_279:\n        /* \"#utility.yul\":11324:11326   */\n    tag_278:\n        /* \"#utility.yul\":11454:11455   */\n      0x01\n        /* \"#utility.yul\":11447:11452   */\n      dup3\n        /* \"#utility.yul\":11443:11456   */\n      add\n        /* \"#utility.yul\":11436:11456   */\n      swap1\n      pop\n        /* \"#utility.yul\":11272:11462   */\n      swap2\n      swap1\n      pop\n      jump\t// out\n        /* \"#utility.yul\":11468:11648   */\n    tag_237:\n        /* \"#utility.yul\":11516:11593   */\n      0x4e487b7100000000000000000000000000000000000000000000000000000000\n        /* \"#utility.yul\":11513:11514   */\n      0x00\n        /* \"#utility.yul\":11506:11594   */\n      mstore\n        /* \"#utility.yul\":11613:11617   */\n      0x11\n        /* \"#utility.yul\":11610:11611   */\n      0x04\n        /* \"#utility.yul\":11603:11618   */\n      mstore\n        /* \"#utility.yul\":11637:11641   */\n      0x24\n        /* \"#utility.yul\":11634:11635   */\n      0x00\n        /* \"#utility.yul\":11627:11642   */\n      revert\n        /* \"#utility.yul\":11654:11834   */\n    tag_243:\n        /* \"#utility.yul\":11702:11779   */\n      0x4e487b7100000000000000000000000000000000000000000000000000000000\n        /* \"#utility.yul\":11699:11700   */\n      0x00\n        /* \"#utility.yul\":11692:11780   */\n      mstore\n        /* \"#utility.yul\":11799:11803   */\n      0x12\n        /* \"#utility.yul\":11796:11797   */\n      0x04\n        /* \"#utility.yul\":11789:11804   */\n      mstore\n        /* \"#utility.yul\":11823:11827   */\n      0x24\n        /* \"#utility.yul\":11820:11821   */\n      0x00\n        /* \"#utility.yul\":11813:11828   */\n      revert\n        /* \"#utility.yul\":11840:11962   */\n    tag_137:\n        /* \"#utility.yul\":11913:11937   */\n      tag_283\n        /* \"#utility.yul\":11931:11936   */\n      dup2\n        /* \"#utility.yul\":11913:11937   */\n      tag_176\n      jump\t// in\n    tag_283:\n        /* \"#utility.yul\":11906:11911   */\n      dup2\n        /* \"#utility.yul\":11903:11938   */\n      eq\n        /* \"#utility.yul\":11893:11895   */\n      tag_284\n      jumpi\n        /* \"#utility.yul\":11952:11953   */\n      0x00\n        /* \"#utility.yul\":11949:11950   */\n      dup1\n        /* \"#utility.yul\":11942:11954   */\n      revert\n        /* \"#utility.yul\":11893:11895   */\n    tag_284:\n        /* \"#utility.yul\":11883:11962   */\n      pop\n      jump\t// out\n        /* \"#utility.yul\":11968:12084   */\n    tag_141:\n        /* \"#utility.yul\":12038:12059   */\n      tag_286\n        /* \"#utility.yul\":12053:12058   */\n      dup2\n        /* \"#utility.yul\":12038:12059   */\n      tag_257\n      jump\t// in\n    tag_286:\n        /* \"#utility.yul\":12031:12036   */\n      dup2\n        /* \"#utility.yul\":12028:12060   */\n      eq\n        /* \"#utility.yul\":12018:12020   */\n      tag_287\n      jumpi\n        /* \"#utility.yul\":12074:12075   */\n      0x00\n        /* \"#utility.yul\":12071:12072   */\n      dup1\n        /* \"#utility.yul\":12064:12076   */\n      revert\n        /* \"#utility.yul\":12018:12020   */\n    tag_287:\n        /* \"#utility.yul\":12008:12084   */\n      pop\n      jump\t// out\n        /* \"#utility.yul\":12090:12212   */\n    tag_150:\n        /* \"#utility.yul\":12163:12187   */\n      tag_289\n        /* \"#utility.yul\":12181:12186   */\n      dup2\n        /* \"#utility.yul\":12163:12187   */\n      tag_205\n      jump\t// in\n    tag_289:\n        /* \"#utility.yul\":12156:12161   */\n      dup2\n        /* \"#utility.yul\":12153:12188   */\n      eq\n        /* \"#utility.yul\":12143:12145   */\n      tag_290\n      jumpi\n        /* \"#utility.yul\":12202:12203   */\n      0x00\n        /* \"#utility.yul\":12199:12200   */\n      dup1\n        /* \"#utility.yul\":12192:12204   */\n      revert\n        /* \"#utility.yul\":12143:12145   */\n    tag_290:\n        /* \"#utility.yul\":12133:12212   */\n      pop\n      jump\t// out\n\n    auxdata: 0xa26469706673582212203865043a7063c5ea1998ff90778c50cb4f6f68298bf256fc5dff4d8bbae24d1464736f6c63430008000033\n}\n",
				"bytecode": {
					"linkReferences": {},
					"object": "60806040523480156200001157600080fd5b50604051620016c8380380620016c8833981810160405281019062000037919062000138565b836000806101000a81548173ffffffffffffffffffffffffffffffffffffffff021916908373ffffffffffffffffffffffffffffffffffffffff16021790555082600160006101000a81548173ffffffffffffffffffffffffffffffffffffffff021916908373ffffffffffffffffffffffffffffffffffffffff16021790555081600260006101000a81548173ffffffffffffffffffffffffffffffffffffffff021916908373ffffffffffffffffffffffffffffffffffffffff160217905550806003819055505050505062000216565b6000815190506200011b81620001e2565b92915050565b6000815190506200013281620001fc565b92915050565b600080600080608085870312156200014f57600080fd5b60006200015f878288016200010a565b945050602062000172878288016200010a565b935050604062000185878288016200010a565b9250506060620001988782880162000121565b91505092959194509250565b6000620001b182620001b8565b9050919050565b600073ffffffffffffffffffffffffffffffffffffffff82169050919050565b6000819050919050565b620001ed81620001a4565b8114620001f957600080fd5b50565b6200020781620001d8565b81146200021357600080fd5b50565b6114a280620002266000396000f3fe608060405234801561001057600080fd5b50600436106100a95760003560e01c806347ccca021161007157806347ccca021461017857806370a0823114610196578063a694fc3a146101c6578063be040fb0146101e2578063f7c618c1146101ec578063fb75b2c71461020a576100a9565b806310098ad5146100ae578063150b7a02146100de5780632ce9aead1461010e5780632d6a1fa61461013e5780632e1a7d4d1461015c575b600080fd5b6100c860048036038101906100c39190610d52565b610228565b6040516100d59190611159565b60405180910390f35b6100f860048036038101906100f39190610d7b565b610336565b6040516101059190611088565b60405180910390f35b61012860048036038101906101239190610d52565b610484565b6040516101359190611159565b60405180910390f35b61014661049c565b6040516101539190611159565b60405180910390f35b61017660048036038101906101719190610e24565b6104a2565b005b61018061070e565b60405161018d91906110be565b60405180910390f35b6101b060048036038101906101ab9190610d52565b610732565b6040516101bd9190611159565b60405180910390f35b6101e060048036038101906101db9190610e24565b61074a565b005b6101ea6107e3565b005b6101f4610c60565b60405161020191906110a3565b60405180910390f35b610212610c86565b60405161021f919061100d565b60405180910390f35b600080600660008473ffffffffffffffffffffffffffffffffffffffff1673ffffffffffffffffffffffffffffffffffffffff16815260200190815260200160002054426102769190611266565b905060006201518060035483600560008873ffffffffffffffffffffffffffffffffffffffff1673ffffffffffffffffffffffffffffffffffffffff168152602001908152602001600020546102cc919061120c565b6102d6919061120c565b6102e091906111db565b905080600760008673ffffffffffffffffffffffffffffffffffffffff1673ffffffffffffffffffffffffffffffffffffffff1681526020019081526020016000205461032d9190611185565b92505050919050565b60008461034281610228565b600760008373ffffffffffffffffffffffffffffffffffffffff1673ffffffffffffffffffffffffffffffffffffffff1681526020019081526020016000208190555042600660008373ffffffffffffffffffffffffffffffffffffffff1673ffffffffffffffffffffffffffffffffffffffff16815260200190815260200160002081905550856004600087815260200190815260200160002060006101000a81548173ffffffffffffffffffffffffffffffffffffffff021916908373ffffffffffffffffffffffffffffffffffffffff160217905550600560008773ffffffffffffffffffffffffffffffffffffffff1673ffffffffffffffffffffffffffffffffffffffff168152602001908152602001600020600081548092919061046b90611380565b919050555063150b7a0260e01b91505095945050505050565b60066020528060005260406000206000915090505481565b60035481565b6104aa610cac565b6104b381610228565b600760008373ffffffffffffffffffffffffffffffffffffffff1673ffffffffffffffffffffffffffffffffffffffff1681526020019081526020016000208190555042600660008373ffffffffffffffffffffffffffffffffffffffff1673ffffffffffffffffffffffffffffffffffffffff16815260200190815260200160002081905550610542610cac565b73ffffffffffffffffffffffffffffffffffffffff166004600084815260200190815260200160002060009054906101000a900473ffffffffffffffffffffffffffffffffffffffff1673ffffffffffffffffffffffffffffffffffffffff16146105e2576040517f08c379a00000000000000000000000000000000000000000000000000000000081526004016105d9906110f9565b60405180910390fd5b6004600083815260200190815260200160002060006101000a81549073ffffffffffffffffffffffffffffffffffffffff021916905560056000610624610cac565b73ffffffffffffffffffffffffffffffffffffffff1673ffffffffffffffffffffffffffffffffffffffff168152602001908152602001600020600081548092919061066f90611356565b919050555060008054906101000a900473ffffffffffffffffffffffffffffffffffffffff1673ffffffffffffffffffffffffffffffffffffffff166323b872dd306106b9610cac565b856040518463ffffffff1660e01b81526004016106d893929190611051565b600060405180830381600087803b1580156106f257600080fd5b505af1158015610706573d6000803e3d6000fd5b505050505050565b60008054906101000a900473ffffffffffffffffffffffffffffffffffffffff1681565b60056020528060005260406000206000915090505481565b60008054906101000a900473ffffffffffffffffffffffffffffffffffffffff1673ffffffffffffffffffffffffffffffffffffffff166342842e0e61078e610cac565b30846040518463ffffffff1660e01b81526004016107ae93929190611051565b600060405180830381600087803b1580156107c857600080fd5b505af11580156107dc573d6000803e3d6000fd5b5050505050565b6107eb610cac565b6107f481610228565b600760008373ffffffffffffffffffffffffffffffffffffffff1673ffffffffffffffffffffffffffffffffffffffff1681526020019081526020016000208190555042600660008373ffffffffffffffffffffffffffffffffffffffff1673ffffffffffffffffffffffffffffffffffffffff16815260200190815260200160002081905550600060076000610889610cac565b73ffffffffffffffffffffffffffffffffffffffff1673ffffffffffffffffffffffffffffffffffffffff16815260200190815260200160002054905060008111610909576040517f08c379a0000000000000000000000000000000000000000000000000000000008152600401610900906110d9565b60405180910390fd5b600060076000610917610cac565b73ffffffffffffffffffffffffffffffffffffffff1673ffffffffffffffffffffffffffffffffffffffff168152602001908152602001600020819055506000600160009054906101000a900473ffffffffffffffffffffffffffffffffffffffff1673ffffffffffffffffffffffffffffffffffffffff1663dd62ed3e600260009054906101000a900473ffffffffffffffffffffffffffffffffffffffff16306040518363ffffffff1660e01b81526004016109d6929190611028565b60206040518083038186803b1580156109ee57600080fd5b505afa158015610a02573d6000803e3d6000fd5b505050506040513d601f19601f82011682018060405250810190610a269190610e4d565b90506000600160009054906101000a900473ffffffffffffffffffffffffffffffffffffffff1673ffffffffffffffffffffffffffffffffffffffff166370a08231600260009054906101000a900473ffffffffffffffffffffffffffffffffffffffff166040518263ffffffff1660e01b8152600401610aa7919061100d565b60206040518083038186803b158015610abf57600080fd5b505afa158015610ad3573d6000803e3d6000fd5b505050506040513d601f19601f82011682018060405250810190610af79190610e4d565b905082821015610b3c576040517f08c379a0000000000000000000000000000000000000000000000000000000008152600401610b3390611139565b60405180910390fd5b82811015610b7f576040517f08c379a0000000000000000000000000000000000000000000000000000000008152600401610b7690611119565b60405180910390fd5b600160009054906101000a900473ffffffffffffffffffffffffffffffffffffffff1673ffffffffffffffffffffffffffffffffffffffff166323b872dd600260009054906101000a900473ffffffffffffffffffffffffffffffffffffffff16610be8610cac565b866040518463ffffffff1660e01b8152600401610c0793929190611051565b602060405180830381600087803b158015610c2157600080fd5b505af1158015610c35573d6000803e3d6000fd5b505050506040513d601f19601f82011682018060405250810190610c599190610dfb565b5050505050565b600160009054906101000a900473ffffffffffffffffffffffffffffffffffffffff1681565b600260009054906101000a900473ffffffffffffffffffffffffffffffffffffffff1681565b600033905090565b600081359050610cc381611427565b92915050565b600081519050610cd88161143e565b92915050565b60008083601f840112610cf057600080fd5b8235905067ffffffffffffffff811115610d0957600080fd5b602083019150836001820283011115610d2157600080fd5b9250929050565b600081359050610d3781611455565b92915050565b600081519050610d4c81611455565b92915050565b600060208284031215610d6457600080fd5b6000610d7284828501610cb4565b91505092915050565b600080600080600060808688031215610d9357600080fd5b6000610da188828901610cb4565b9550506020610db288828901610cb4565b9450506040610dc388828901610d28565b935050606086013567ffffffffffffffff811115610de057600080fd5b610dec88828901610cde565b92509250509295509295909350565b600060208284031215610e0d57600080fd5b6000610e1b84828501610cc9565b91505092915050565b600060208284031215610e3657600080fd5b6000610e4484828501610d28565b91505092915050565b600060208284031215610e5f57600080fd5b6000610e6d84828501610d3d565b91505092915050565b610e7f8161129a565b82525050565b610e8e816112b8565b82525050565b610e9d8161130e565b82525050565b610eac81611332565b82525050565b6000610ebf601183611174565b91507f4e6f7468696e6720746f2072656465656d0000000000000000000000000000006000830152602082019050919050565b6000610eff601483611174565b91507f546f6b656e206973206e6f74207374616b65642e0000000000000000000000006000830152602082019050919050565b6000610f3f602183611174565b91507f436865636b20746865207265776172642077616c6c657427732062616c616e6360008301527f65000000000000000000000000000000000000000000000000000000000000006020830152604082019050919050565b6000610fa5602383611174565b91507f436865636b20746865207265776172642077616c6c6574277320616c6c6f776160008301527f6e636500000000000000000000000000000000000000000000000000000000006020830152604082019050919050565b61100781611304565b82525050565b60006020820190506110226000830184610e76565b92915050565b600060408201905061103d6000830185610e76565b61104a6020830184610e76565b9392505050565b60006060820190506110666000830186610e76565b6110736020830185610e76565b6110806040830184610ffe565b949350505050565b600060208201905061109d6000830184610e85565b92915050565b60006020820190506110b86000830184610e94565b92915050565b60006020820190506110d36000830184610ea3565b92915050565b600060208201905081810360008301526110f281610eb2565b9050919050565b6000602082019050818103600083015261111281610ef2565b9050919050565b6000602082019050818103600083015261113281610f32565b9050919050565b6000602082019050818103600083015261115281610f98565b9050919050565b600060208201905061116e6000830184610ffe565b92915050565b600082825260208201905092915050565b600061119082611304565b915061119b83611304565b9250827fffffffffffffffffffffffffffffffffffffffffffffffffffffffffffffffff038211156111d0576111cf6113c9565b5b828201905092915050565b60006111e682611304565b91506111f183611304565b925082611201576112006113f8565b5b828204905092915050565b600061121782611304565b915061122283611304565b9250817fffffffffffffffffffffffffffffffffffffffffffffffffffffffffffffffff048311821515161561125b5761125a6113c9565b5b828202905092915050565b600061127182611304565b915061127c83611304565b92508282101561128f5761128e6113c9565b5b828203905092915050565b60006112a5826112e4565b9050919050565b60008115159050919050565b60007fffffffff0000000000000000000000000000000000000000000000000000000082169050919050565b600073ffffffffffffffffffffffffffffffffffffffff82169050919050565b6000819050919050565b600061131982611320565b9050919050565b600061132b826112e4565b9050919050565b600061133d82611344565b9050919050565b600061134f826112e4565b9050919050565b600061136182611304565b91506000821415611375576113746113c9565b5b600182039050919050565b600061138b82611304565b91507fffffffffffffffffffffffffffffffffffffffffffffffffffffffffffffffff8214156113be576113bd6113c9565b5b600182019050919050565b7f4e487b7100000000000000000000000000000000000000000000000000000000600052601160045260246000fd5b7f4e487b7100000000000000000000000000000000000000000000000000000000600052601260045260246000fd5b6114308161129a565b811461143b57600080fd5b50565b611447816112ac565b811461145257600080fd5b50565b61145e81611304565b811461146957600080fd5b5056fea26469706673582212203865043a7063c5ea1998ff90778c50cb4f6f68298bf256fc5dff4d8bbae24d1464736f6c63430008000033",
					"opcodes": "PUSH1 0x80 PUSH1 0x40 MSTORE CALLVALUE DUP1 ISZERO PUSH3 0x11 JUMPI PUSH1 0x0 DUP1 REVERT JUMPDEST POP PUSH1 0x40 MLOAD PUSH3 0x16C8 CODESIZE SUB DUP1 PUSH3 0x16C8 DUP4 CODECOPY DUP2 DUP2 ADD PUSH1 0x40 MSTORE DUP2 ADD SWAP1 PUSH3 0x37 SWAP2 SWAP1 PUSH3 0x138 JUMP JUMPDEST DUP4 PUSH1 0x0 DUP1 PUSH2 0x100 EXP DUP2 SLOAD DUP2 PUSH20 0xFFFFFFFFFFFFFFFFFFFFFFFFFFFFFFFFFFFFFFFF MUL NOT AND SWAP1 DUP4 PUSH20 0xFFFFFFFFFFFFFFFFFFFFFFFFFFFFFFFFFFFFFFFF AND MUL OR SWAP1 SSTORE POP DUP3 PUSH1 0x1 PUSH1 0x0 PUSH2 0x100 EXP DUP2 SLOAD DUP2 PUSH20 0xFFFFFFFFFFFFFFFFFFFFFFFFFFFFFFFFFFFFFFFF MUL NOT AND SWAP1 DUP4 PUSH20 0xFFFFFFFFFFFFFFFFFFFFFFFFFFFFFFFFFFFFFFFF AND MUL OR SWAP1 SSTORE POP DUP2 PUSH1 0x2 PUSH1 0x0 PUSH2 0x100 EXP DUP2 SLOAD DUP2 PUSH20 0xFFFFFFFFFFFFFFFFFFFFFFFFFFFFFFFFFFFFFFFF MUL NOT AND SWAP1 DUP4 PUSH20 0xFFFFFFFFFFFFFFFFFFFFFFFFFFFFFFFFFFFFFFFF AND MUL OR SWAP1 SSTORE POP DUP1 PUSH1 0x3 DUP2 SWAP1 SSTORE POP POP POP POP POP PUSH3 0x216 JUMP JUMPDEST PUSH1 0x0 DUP2 MLOAD SWAP1 POP PUSH3 0x11B DUP2 PUSH3 0x1E2 JUMP JUMPDEST SWAP3 SWAP2 POP POP JUMP JUMPDEST PUSH1 0x0 DUP2 MLOAD SWAP1 POP PUSH3 0x132 DUP2 PUSH3 0x1FC JUMP JUMPDEST SWAP3 SWAP2 POP POP JUMP JUMPDEST PUSH1 0x0 DUP1 PUSH1 0x0 DUP1 PUSH1 0x80 DUP6 DUP8 SUB SLT ISZERO PUSH3 0x14F JUMPI PUSH1 0x0 DUP1 REVERT JUMPDEST PUSH1 0x0 PUSH3 0x15F DUP8 DUP3 DUP9 ADD PUSH3 0x10A JUMP JUMPDEST SWAP5 POP POP PUSH1 0x20 PUSH3 0x172 DUP8 DUP3 DUP9 ADD PUSH3 0x10A JUMP JUMPDEST SWAP4 POP POP PUSH1 0x40 PUSH3 0x185 DUP8 DUP3 DUP9 ADD PUSH3 0x10A JUMP JUMPDEST SWAP3 POP POP PUSH1 0x60 PUSH3 0x198 DUP8 DUP3 DUP9 ADD PUSH3 0x121 JUMP JUMPDEST SWAP2 POP POP SWAP3 SWAP6 SWAP2 SWAP5 POP SWAP3 POP JUMP JUMPDEST PUSH1 0x0 PUSH3 0x1B1 DUP3 PUSH3 0x1B8 JUMP JUMPDEST SWAP1 POP SWAP2 SWAP1 POP JUMP JUMPDEST PUSH1 0x0 PUSH20 0xFFFFFFFFFFFFFFFFFFFFFFFFFFFFFFFFFFFFFFFF DUP3 AND SWAP1 POP SWAP2 SWAP1 POP JUMP JUMPDEST PUSH1 0x0 DUP2 SWAP1 POP SWAP2 SWAP1 POP JUMP JUMPDEST PUSH3 0x1ED DUP2 PUSH3 0x1A4 JUMP JUMPDEST DUP2 EQ PUSH3 0x1F9 JUMPI PUSH1 0x0 DUP1 REVERT JUMPDEST POP JUMP JUMPDEST PUSH3 0x207 DUP2 PUSH3 0x1D8 JUMP JUMPDEST DUP2 EQ PUSH3 0x213 JUMPI PUSH1 0x0 DUP1 REVERT JUMPDEST POP JUMP JUMPDEST PUSH2 0x14A2 DUP1 PUSH3 0x226 PUSH1 0x0 CODECOPY PUSH1 0x0 RETURN INVALID PUSH1 0x80 PUSH1 0x40 MSTORE CALLVALUE DUP1 ISZERO PUSH2 0x10 JUMPI PUSH1 0x0 DUP1 REVERT JUMPDEST POP PUSH1 0x4 CALLDATASIZE LT PUSH2 0xA9 JUMPI PUSH1 0x0 CALLDATALOAD PUSH1 0xE0 SHR DUP1 PUSH4 0x47CCCA02 GT PUSH2 0x71 JUMPI DUP1 PUSH4 0x47CCCA02 EQ PUSH2 0x178 JUMPI DUP1 PUSH4 0x70A08231 EQ PUSH2 0x196 JUMPI DUP1 PUSH4 0xA694FC3A EQ PUSH2 0x1C6 JUMPI DUP1 PUSH4 0xBE040FB0 EQ PUSH2 0x1E2 JUMPI DUP1 PUSH4 0xF7C618C1 EQ PUSH2 0x1EC JUMPI DUP1 PUSH4 0xFB75B2C7 EQ PUSH2 0x20A JUMPI PUSH2 0xA9 JUMP JUMPDEST DUP1 PUSH4 0x10098AD5 EQ PUSH2 0xAE JUMPI DUP1 PUSH4 0x150B7A02 EQ PUSH2 0xDE JUMPI DUP1 PUSH4 0x2CE9AEAD EQ PUSH2 0x10E JUMPI DUP1 PUSH4 0x2D6A1FA6 EQ PUSH2 0x13E JUMPI DUP1 PUSH4 0x2E1A7D4D EQ PUSH2 0x15C JUMPI JUMPDEST PUSH1 0x0 DUP1 REVERT JUMPDEST PUSH2 0xC8 PUSH1 0x4 DUP1 CALLDATASIZE SUB DUP2 ADD SWAP1 PUSH2 0xC3 SWAP2 SWAP1 PUSH2 0xD52 JUMP JUMPDEST PUSH2 0x228 JUMP JUMPDEST PUSH1 0x40 MLOAD PUSH2 0xD5 SWAP2 SWAP1 PUSH2 0x1159 JUMP JUMPDEST PUSH1 0x40 MLOAD DUP1 SWAP2 SUB SWAP1 RETURN JUMPDEST PUSH2 0xF8 PUSH1 0x4 DUP1 CALLDATASIZE SUB DUP2 ADD SWAP1 PUSH2 0xF3 SWAP2 SWAP1 PUSH2 0xD7B JUMP JUMPDEST PUSH2 0x336 JUMP JUMPDEST PUSH1 0x40 MLOAD PUSH2 0x105 SWAP2 SWAP1 PUSH2 0x1088 JUMP JUMPDEST PUSH1 0x40 MLOAD DUP1 SWAP2 SUB SWAP1 RETURN JUMPDEST PUSH2 0x128 PUSH1 0x4 DUP1 CALLDATASIZE SUB DUP2 ADD SWAP1 PUSH2 0x123 SWAP2 SWAP1 PUSH2 0xD52 JUMP JUMPDEST PUSH2 0x484 JUMP JUMPDEST PUSH1 0x40 MLOAD PUSH2 0x135 SWAP2 SWAP1 PUSH2 0x1159 JUMP JUMPDEST PUSH1 0x40 MLOAD DUP1 SWAP2 SUB SWAP1 RETURN JUMPDEST PUSH2 0x146 PUSH2 0x49C JUMP JUMPDEST PUSH1 0x40 MLOAD PUSH2 0x153 SWAP2 SWAP1 PUSH2 0x1159 JUMP JUMPDEST PUSH1 0x40 MLOAD DUP1 SWAP2 SUB SWAP1 RETURN JUMPDEST PUSH2 0x176 PUSH1 0x4 DUP1 CALLDATASIZE SUB DUP2 ADD SWAP1 PUSH2 0x171 SWAP2 SWAP1 PUSH2 0xE24 JUMP JUMPDEST PUSH2 0x4A2 JUMP JUMPDEST STOP JUMPDEST PUSH2 0x180 PUSH2 0x70E JUMP JUMPDEST PUSH1 0x40 MLOAD PUSH2 0x18D SWAP2 SWAP1 PUSH2 0x10BE JUMP JUMPDEST PUSH1 0x40 MLOAD DUP1 SWAP2 SUB SWAP1 RETURN JUMPDEST PUSH2 0x1B0 PUSH1 0x4 DUP1 CALLDATASIZE SUB DUP2 ADD SWAP1 PUSH2 0x1AB SWAP2 SWAP1 PUSH2 0xD52 JUMP JUMPDEST PUSH2 0x732 JUMP JUMPDEST PUSH1 0x40 MLOAD PUSH2 0x1BD SWAP2 SWAP1 PUSH2 0x1159 JUMP JUMPDEST PUSH1 0x40 MLOAD DUP1 SWAP2 SUB SWAP1 RETURN JUMPDEST PUSH2 0x1E0 PUSH1 0x4 DUP1 CALLDATASIZE SUB DUP2 ADD SWAP1 PUSH2 0x1DB SWAP2 SWAP1 PUSH2 0xE24 JUMP JUMPDEST PUSH2 0x74A JUMP JUMPDEST STOP JUMPDEST PUSH2 0x1EA PUSH2 0x7E3 JUMP JUMPDEST STOP JUMPDEST PUSH2 0x1F4 PUSH2 0xC60 JUMP JUMPDEST PUSH1 0x40 MLOAD PUSH2 0x201 SWAP2 SWAP1 PUSH2 0x10A3 JUMP JUMPDEST PUSH1 0x40 MLOAD DUP1 SWAP2 SUB SWAP1 RETURN JUMPDEST PUSH2 0x212 PUSH2 0xC86 JUMP JUMPDEST PUSH1 0x40 MLOAD PUSH2 0x21F SWAP2 SWAP1 PUSH2 0x100D JUMP JUMPDEST PUSH1 0x40 MLOAD DUP1 SWAP2 SUB SWAP1 RETURN JUMPDEST PUSH1 0x0 DUP1 PUSH1 0x6 PUSH1 0x0 DUP5 PUSH20 0xFFFFFFFFFFFFFFFFFFFFFFFFFFFFFFFFFFFFFFFF AND PUSH20 0xFFFFFFFFFFFFFFFFFFFFFFFFFFFFFFFFFFFFFFFF AND DUP2 MSTORE PUSH1 0x20 ADD SWAP1 DUP2 MSTORE PUSH1 0x20 ADD PUSH1 0x0 KECCAK256 SLOAD TIMESTAMP PUSH2 0x276 SWAP2 SWAP1 PUSH2 0x1266 JUMP JUMPDEST SWAP1 POP PUSH1 0x0 PUSH3 0x15180 PUSH1 0x3 SLOAD DUP4 PUSH1 0x5 PUSH1 0x0 DUP9 PUSH20 0xFFFFFFFFFFFFFFFFFFFFFFFFFFFFFFFFFFFFFFFF AND PUSH20 0xFFFFFFFFFFFFFFFFFFFFFFFFFFFFFFFFFFFFFFFF AND DUP2 MSTORE PUSH1 0x20 ADD SWAP1 DUP2 MSTORE PUSH1 0x20 ADD PUSH1 0x0 KECCAK256 SLOAD PUSH2 0x2CC SWAP2 SWAP1 PUSH2 0x120C JUMP JUMPDEST PUSH2 0x2D6 SWAP2 SWAP1 PUSH2 0x120C JUMP JUMPDEST PUSH2 0x2E0 SWAP2 SWAP1 PUSH2 0x11DB JUMP JUMPDEST SWAP1 POP DUP1 PUSH1 0x7 PUSH1 0x0 DUP7 PUSH20 0xFFFFFFFFFFFFFFFFFFFFFFFFFFFFFFFFFFFFFFFF AND PUSH20 0xFFFFFFFFFFFFFFFFFFFFFFFFFFFFFFFFFFFFFFFF AND DUP2 MSTORE PUSH1 0x20 ADD SWAP1 DUP2 MSTORE PUSH1 0x20 ADD PUSH1 0x0 KECCAK256 SLOAD PUSH2 0x32D SWAP2 SWAP1 PUSH2 0x1185 JUMP JUMPDEST SWAP3 POP POP POP SWAP2 SWAP1 POP JUMP JUMPDEST PUSH1 0x0 DUP5 PUSH2 0x342 DUP2 PUSH2 0x228 JUMP JUMPDEST PUSH1 0x7 PUSH1 0x0 DUP4 PUSH20 0xFFFFFFFFFFFFFFFFFFFFFFFFFFFFFFFFFFFFFFFF AND PUSH20 0xFFFFFFFFFFFFFFFFFFFFFFFFFFFFFFFFFFFFFFFF AND DUP2 MSTORE PUSH1 0x20 ADD SWAP1 DUP2 MSTORE PUSH1 0x20 ADD PUSH1 0x0 KECCAK256 DUP2 SWAP1 SSTORE POP TIMESTAMP PUSH1 0x6 PUSH1 0x0 DUP4 PUSH20 0xFFFFFFFFFFFFFFFFFFFFFFFFFFFFFFFFFFFFFFFF AND PUSH20 0xFFFFFFFFFFFFFFFFFFFFFFFFFFFFFFFFFFFFFFFF AND DUP2 MSTORE PUSH1 0x20 ADD SWAP1 DUP2 MSTORE PUSH1 0x20 ADD PUSH1 0x0 KECCAK256 DUP2 SWAP1 SSTORE POP DUP6 PUSH1 0x4 PUSH1 0x0 DUP8 DUP2 MSTORE PUSH1 0x20 ADD SWAP1 DUP2 MSTORE PUSH1 0x20 ADD PUSH1 0x0 KECCAK256 PUSH1 0x0 PUSH2 0x100 EXP DUP2 SLOAD DUP2 PUSH20 0xFFFFFFFFFFFFFFFFFFFFFFFFFFFFFFFFFFFFFFFF MUL NOT AND SWAP1 DUP4 PUSH20 0xFFFFFFFFFFFFFFFFFFFFFFFFFFFFFFFFFFFFFFFF AND MUL OR SWAP1 SSTORE POP PUSH1 0x5 PUSH1 0x0 DUP8 PUSH20 0xFFFFFFFFFFFFFFFFFFFFFFFFFFFFFFFFFFFFFFFF AND PUSH20 0xFFFFFFFFFFFFFFFFFFFFFFFFFFFFFFFFFFFFFFFF AND DUP2 MSTORE PUSH1 0x20 ADD SWAP1 DUP2 MSTORE PUSH1 0x20 ADD PUSH1 0x0 KECCAK256 PUSH1 0x0 DUP2 SLOAD DUP1 SWAP3 SWAP2 SWAP1 PUSH2 0x46B SWAP1 PUSH2 0x1380 JUMP JUMPDEST SWAP2 SWAP1 POP SSTORE POP PUSH4 0x150B7A02 PUSH1 0xE0 SHL SWAP2 POP POP SWAP6 SWAP5 POP POP POP POP POP JUMP JUMPDEST PUSH1 0x6 PUSH1 0x20 MSTORE DUP1 PUSH1 0x0 MSTORE PUSH1 0x40 PUSH1 0x0 KECCAK256 PUSH1 0x0 SWAP2 POP SWAP1 POP SLOAD DUP2 JUMP JUMPDEST PUSH1 0x3 SLOAD DUP2 JUMP JUMPDEST PUSH2 0x4AA PUSH2 0xCAC JUMP JUMPDEST PUSH2 0x4B3 DUP2 PUSH2 0x228 JUMP JUMPDEST PUSH1 0x7 PUSH1 0x0 DUP4 PUSH20 0xFFFFFFFFFFFFFFFFFFFFFFFFFFFFFFFFFFFFFFFF AND PUSH20 0xFFFFFFFFFFFFFFFFFFFFFFFFFFFFFFFFFFFFFFFF AND DUP2 MSTORE PUSH1 0x20 ADD SWAP1 DUP2 MSTORE PUSH1 0x20 ADD PUSH1 0x0 KECCAK256 DUP2 SWAP1 SSTORE POP TIMESTAMP PUSH1 0x6 PUSH1 0x0 DUP4 PUSH20 0xFFFFFFFFFFFFFFFFFFFFFFFFFFFFFFFFFFFFFFFF AND PUSH20 0xFFFFFFFFFFFFFFFFFFFFFFFFFFFFFFFFFFFFFFFF AND DUP2 MSTORE PUSH1 0x20 ADD SWAP1 DUP2 MSTORE PUSH1 0x20 ADD PUSH1 0x0 KECCAK256 DUP2 SWAP1 SSTORE POP PUSH2 0x542 PUSH2 0xCAC JUMP JUMPDEST PUSH20 0xFFFFFFFFFFFFFFFFFFFFFFFFFFFFFFFFFFFFFFFF AND PUSH1 0x4 PUSH1 0x0 DUP5 DUP2 MSTORE PUSH1 0x20 ADD SWAP1 DUP2 MSTORE PUSH1 0x20 ADD PUSH1 0x0 KECCAK256 PUSH1 0x0 SWAP1 SLOAD SWAP1 PUSH2 0x100 EXP SWAP1 DIV PUSH20 0xFFFFFFFFFFFFFFFFFFFFFFFFFFFFFFFFFFFFFFFF AND PUSH20 0xFFFFFFFFFFFFFFFFFFFFFFFFFFFFFFFFFFFFFFFF AND EQ PUSH2 0x5E2 JUMPI PUSH1 0x40 MLOAD PUSH32 0x8C379A000000000000000000000000000000000000000000000000000000000 DUP2 MSTORE PUSH1 0x4 ADD PUSH2 0x5D9 SWAP1 PUSH2 0x10F9 JUMP JUMPDEST PUSH1 0x40 MLOAD DUP1 SWAP2 SUB SWAP1 REVERT JUMPDEST PUSH1 0x4 PUSH1 0x0 DUP4 DUP2 MSTORE PUSH1 0x20 ADD SWAP1 DUP2 MSTORE PUSH1 0x20 ADD PUSH1 0x0 KECCAK256 PUSH1 0x0 PUSH2 0x100 EXP DUP2 SLOAD SWAP1 PUSH20 0xFFFFFFFFFFFFFFFFFFFFFFFFFFFFFFFFFFFFFFFF MUL NOT AND SWAP1 SSTORE PUSH1 0x5 PUSH1 0x0 PUSH2 0x624 PUSH2 0xCAC JUMP JUMPDEST PUSH20 0xFFFFFFFFFFFFFFFFFFFFFFFFFFFFFFFFFFFFFFFF AND PUSH20 0xFFFFFFFFFFFFFFFFFFFFFFFFFFFFFFFFFFFFFFFF AND DUP2 MSTORE PUSH1 0x20 ADD SWAP1 DUP2 MSTORE PUSH1 0x20 ADD PUSH1 0x0 KECCAK256 PUSH1 0x0 DUP2 SLOAD DUP1 SWAP3 SWAP2 SWAP1 PUSH2 0x66F SWAP1 PUSH2 0x1356 JUMP JUMPDEST SWAP2 SWAP1 POP SSTORE POP PUSH1 0x0 DUP1 SLOAD SWAP1 PUSH2 0x100 EXP SWAP1 DIV PUSH20 0xFFFFFFFFFFFFFFFFFFFFFFFFFFFFFFFFFFFFFFFF AND PUSH20 0xFFFFFFFFFFFFFFFFFFFFFFFFFFFFFFFFFFFFFFFF AND PUSH4 0x23B872DD ADDRESS PUSH2 0x6B9 PUSH2 0xCAC JUMP JUMPDEST DUP6 PUSH1 0x40 MLOAD DUP5 PUSH4 0xFFFFFFFF AND PUSH1 0xE0 SHL DUP2 MSTORE PUSH1 0x4 ADD PUSH2 0x6D8 SWAP4 SWAP3 SWAP2 SWAP1 PUSH2 0x1051 JUMP JUMPDEST PUSH1 0x0 PUSH1 0x40 MLOAD DUP1 DUP4 SUB DUP2 PUSH1 0x0 DUP8 DUP1 EXTCODESIZE ISZERO DUP1 ISZERO PUSH2 0x6F2 JUMPI PUSH1 0x0 DUP1 REVERT JUMPDEST POP GAS CALL ISZERO DUP1 ISZERO PUSH2 0x706 JUMPI RETURNDATASIZE PUSH1 0x0 DUP1 RETURNDATACOPY RETURNDATASIZE PUSH1 0x0 REVERT JUMPDEST POP POP POP POP POP POP JUMP JUMPDEST PUSH1 0x0 DUP1 SLOAD SWAP1 PUSH2 0x100 EXP SWAP1 DIV PUSH20 0xFFFFFFFFFFFFFFFFFFFFFFFFFFFFFFFFFFFFFFFF AND DUP2 JUMP JUMPDEST PUSH1 0x5 PUSH1 0x20 MSTORE DUP1 PUSH1 0x0 MSTORE PUSH1 0x40 PUSH1 0x0 KECCAK256 PUSH1 0x0 SWAP2 POP SWAP1 POP SLOAD DUP2 JUMP JUMPDEST PUSH1 0x0 DUP1 SLOAD SWAP1 PUSH2 0x100 EXP SWAP1 DIV PUSH20 0xFFFFFFFFFFFFFFFFFFFFFFFFFFFFFFFFFFFFFFFF AND PUSH20 0xFFFFFFFFFFFFFFFFFFFFFFFFFFFFFFFFFFFFFFFF AND PUSH4 0x42842E0E PUSH2 0x78E PUSH2 0xCAC JUMP JUMPDEST ADDRESS DUP5 PUSH1 0x40 MLOAD DUP5 PUSH4 0xFFFFFFFF AND PUSH1 0xE0 SHL DUP2 MSTORE PUSH1 0x4 ADD PUSH2 0x7AE SWAP4 SWAP3 SWAP2 SWAP1 PUSH2 0x1051 JUMP JUMPDEST PUSH1 0x0 PUSH1 0x40 MLOAD DUP1 DUP4 SUB DUP2 PUSH1 0x0 DUP8 DUP1 EXTCODESIZE ISZERO DUP1 ISZERO PUSH2 0x7C8 JUMPI PUSH1 0x0 DUP1 REVERT JUMPDEST POP GAS CALL ISZERO DUP1 ISZERO PUSH2 0x7DC JUMPI RETURNDATASIZE PUSH1 0x0 DUP1 RETURNDATACOPY RETURNDATASIZE PUSH1 0x0 REVERT JUMPDEST POP POP POP POP POP JUMP JUMPDEST PUSH2 0x7EB PUSH2 0xCAC JUMP JUMPDEST PUSH2 0x7F4 DUP2 PUSH2 0x228 JUMP JUMPDEST PUSH1 0x7 PUSH1 0x0 DUP4 PUSH20 0xFFFFFFFFFFFFFFFFFFFFFFFFFFFFFFFFFFFFFFFF AND PUSH20 0xFFFFFFFFFFFFFFFFFFFFFFFFFFFFFFFFFFFFFFFF AND DUP2 MSTORE PUSH1 0x20 ADD SWAP1 DUP2 MSTORE PUSH1 0x20 ADD PUSH1 0x0 KECCAK256 DUP2 SWAP1 SSTORE POP TIMESTAMP PUSH1 0x6 PUSH1 0x0 DUP4 PUSH20 0xFFFFFFFFFFFFFFFFFFFFFFFFFFFFFFFFFFFFFFFF AND PUSH20 0xFFFFFFFFFFFFFFFFFFFFFFFFFFFFFFFFFFFFFFFF AND DUP2 MSTORE PUSH1 0x20 ADD SWAP1 DUP2 MSTORE PUSH1 0x20 ADD PUSH1 0x0 KECCAK256 DUP2 SWAP1 SSTORE POP PUSH1 0x0 PUSH1 0x7 PUSH1 0x0 PUSH2 0x889 PUSH2 0xCAC JUMP JUMPDEST PUSH20 0xFFFFFFFFFFFFFFFFFFFFFFFFFFFFFFFFFFFFFFFF AND PUSH20 0xFFFFFFFFFFFFFFFFFFFFFFFFFFFFFFFFFFFFFFFF AND DUP2 MSTORE PUSH1 0x20 ADD SWAP1 DUP2 MSTORE PUSH1 0x20 ADD PUSH1 0x0 KECCAK256 SLOAD SWAP1 POP PUSH1 0x0 DUP2 GT PUSH2 0x909 JUMPI PUSH1 0x40 MLOAD PUSH32 0x8C379A000000000000000000000000000000000000000000000000000000000 DUP2 MSTORE PUSH1 0x4 ADD PUSH2 0x900 SWAP1 PUSH2 0x10D9 JUMP JUMPDEST PUSH1 0x40 MLOAD DUP1 SWAP2 SUB SWAP1 REVERT JUMPDEST PUSH1 0x0 PUSH1 0x7 PUSH1 0x0 PUSH2 0x917 PUSH2 0xCAC JUMP JUMPDEST PUSH20 0xFFFFFFFFFFFFFFFFFFFFFFFFFFFFFFFFFFFFFFFF AND PUSH20 0xFFFFFFFFFFFFFFFFFFFFFFFFFFFFFFFFFFFFFFFF AND DUP2 MSTORE PUSH1 0x20 ADD SWAP1 DUP2 MSTORE PUSH1 0x20 ADD PUSH1 0x0 KECCAK256 DUP2 SWAP1 SSTORE POP PUSH1 0x0 PUSH1 0x1 PUSH1 0x0 SWAP1 SLOAD SWAP1 PUSH2 0x100 EXP SWAP1 DIV PUSH20 0xFFFFFFFFFFFFFFFFFFFFFFFFFFFFFFFFFFFFFFFF AND PUSH20 0xFFFFFFFFFFFFFFFFFFFFFFFFFFFFFFFFFFFFFFFF AND PUSH4 0xDD62ED3E PUSH1 0x2 PUSH1 0x0 SWAP1 SLOAD SWAP1 PUSH2 0x100 EXP SWAP1 DIV PUSH20 0xFFFFFFFFFFFFFFFFFFFFFFFFFFFFFFFFFFFFFFFF AND ADDRESS PUSH1 0x40 MLOAD DUP4 PUSH4 0xFFFFFFFF AND PUSH1 0xE0 SHL DUP2 MSTORE PUSH1 0x4 ADD PUSH2 0x9D6 SWAP3 SWAP2 SWAP1 PUSH2 0x1028 JUMP JUMPDEST PUSH1 0x20 PUSH1 0x40 MLOAD DUP1 DUP4 SUB DUP2 DUP7 DUP1 EXTCODESIZE ISZERO DUP1 ISZERO PUSH2 0x9EE JUMPI PUSH1 0x0 DUP1 REVERT JUMPDEST POP GAS STATICCALL ISZERO DUP1 ISZERO PUSH2 0xA02 JUMPI RETURNDATASIZE PUSH1 0x0 DUP1 RETURNDATACOPY RETURNDATASIZE PUSH1 0x0 REVERT JUMPDEST POP POP POP POP PUSH1 0x40 MLOAD RETURNDATASIZE PUSH1 0x1F NOT PUSH1 0x1F DUP3 ADD AND DUP3 ADD DUP1 PUSH1 0x40 MSTORE POP DUP2 ADD SWAP1 PUSH2 0xA26 SWAP2 SWAP1 PUSH2 0xE4D JUMP JUMPDEST SWAP1 POP PUSH1 0x0 PUSH1 0x1 PUSH1 0x0 SWAP1 SLOAD SWAP1 PUSH2 0x100 EXP SWAP1 DIV PUSH20 0xFFFFFFFFFFFFFFFFFFFFFFFFFFFFFFFFFFFFFFFF AND PUSH20 0xFFFFFFFFFFFFFFFFFFFFFFFFFFFFFFFFFFFFFFFF AND PUSH4 0x70A08231 PUSH1 0x2 PUSH1 0x0 SWAP1 SLOAD SWAP1 PUSH2 0x100 EXP SWAP1 DIV PUSH20 0xFFFFFFFFFFFFFFFFFFFFFFFFFFFFFFFFFFFFFFFF AND PUSH1 0x40 MLOAD DUP3 PUSH4 0xFFFFFFFF AND PUSH1 0xE0 SHL DUP2 MSTORE PUSH1 0x4 ADD PUSH2 0xAA7 SWAP2 SWAP1 PUSH2 0x100D JUMP JUMPDEST PUSH1 0x20 PUSH1 0x40 MLOAD DUP1 DUP4 SUB DUP2 DUP7 DUP1 EXTCODESIZE ISZERO DUP1 ISZERO PUSH2 0xABF JUMPI PUSH1 0x0 DUP1 REVERT JUMPDEST POP GAS STATICCALL ISZERO DUP1 ISZERO PUSH2 0xAD3 JUMPI RETURNDATASIZE PUSH1 0x0 DUP1 RETURNDATACOPY RETURNDATASIZE PUSH1 0x0 REVERT JUMPDEST POP POP POP POP PUSH1 0x40 MLOAD RETURNDATASIZE PUSH1 0x1F NOT PUSH1 0x1F DUP3 ADD AND DUP3 ADD DUP1 PUSH1 0x40 MSTORE POP DUP2 ADD SWAP1 PUSH2 0xAF7 SWAP2 SWAP1 PUSH2 0xE4D JUMP JUMPDEST SWAP1 POP DUP3 DUP3 LT ISZERO PUSH2 0xB3C JUMPI PUSH1 0x40 MLOAD PUSH32 0x8C379A000000000000000000000000000000000000000000000000000000000 DUP2 MSTORE PUSH1 0x4 ADD PUSH2 0xB33 SWAP1 PUSH2 0x1139 JUMP JUMPDEST PUSH1 0x40 MLOAD DUP1 SWAP2 SUB SWAP1 REVERT JUMPDEST DUP3 DUP2 LT ISZERO PUSH2 0xB7F JUMPI PUSH1 0x40 MLOAD PUSH32 0x8C379A000000000000000000000000000000000000000000000000000000000 DUP2 MSTORE PUSH1 0x4 ADD PUSH2 0xB76 SWAP1 PUSH2 0x1119 JUMP JUMPDEST PUSH1 0x40 MLOAD DUP1 SWAP2 SUB SWAP1 REVERT JUMPDEST PUSH1 0x1 PUSH1 0x0 SWAP1 SLOAD SWAP1 PUSH2 0x100 EXP SWAP1 DIV PUSH20 0xFFFFFFFFFFFFFFFFFFFFFFFFFFFFFFFFFFFFFFFF AND PUSH20 0xFFFFFFFFFFFFFFFFFFFFFFFFFFFFFFFFFFFFFFFF AND PUSH4 0x23B872DD PUSH1 0x2 PUSH1 0x0 SWAP1 SLOAD SWAP1 PUSH2 0x100 EXP SWAP1 DIV PUSH20 0xFFFFFFFFFFFFFFFFFFFFFFFFFFFFFFFFFFFFFFFF AND PUSH2 0xBE8 PUSH2 0xCAC JUMP JUMPDEST DUP7 PUSH1 0x40 MLOAD DUP5 PUSH4 0xFFFFFFFF AND PUSH1 0xE0 SHL DUP2 MSTORE PUSH1 0x4 ADD PUSH2 0xC07 SWAP4 SWAP3 SWAP2 SWAP1 PUSH2 0x1051 JUMP JUMPDEST PUSH1 0x20 PUSH1 0x40 MLOAD DUP1 DUP4 SUB DUP2 PUSH1 0x0 DUP8 DUP1 EXTCODESIZE ISZERO DUP1 ISZERO PUSH2 0xC21 JUMPI PUSH1 0x0 DUP1 REVERT JUMPDEST POP GAS CALL ISZERO DUP1 ISZERO PUSH2 0xC35 JUMPI RETURNDATASIZE PUSH1 0x0 DUP1 RETURNDATACOPY RETURNDATASIZE PUSH1 0x0 REVERT JUMPDEST POP POP POP POP PUSH1 0x40 MLOAD RETURNDATASIZE PUSH1 0x1F NOT PUSH1 0x1F DUP3 ADD AND DUP3 ADD DUP1 PUSH1 0x40 MSTORE POP DUP2 ADD SWAP1 PUSH2 0xC59 SWAP2 SWAP1 PUSH2 0xDFB JUMP JUMPDEST POP POP POP POP POP JUMP JUMPDEST PUSH1 0x1 PUSH1 0x0 SWAP1 SLOAD SWAP1 PUSH2 0x100 EXP SWAP1 DIV PUSH20 0xFFFFFFFFFFFFFFFFFFFFFFFFFFFFFFFFFFFFFFFF AND DUP2 JUMP JUMPDEST PUSH1 0x2 PUSH1 0x0 SWAP1 SLOAD SWAP1 PUSH2 0x100 EXP SWAP1 DIV PUSH20 0xFFFFFFFFFFFFFFFFFFFFFFFFFFFFFFFFFFFFFFFF AND DUP2 JUMP JUMPDEST PUSH1 0x0 CALLER SWAP1 POP SWAP1 JUMP JUMPDEST PUSH1 0x0 DUP2 CALLDATALOAD SWAP1 POP PUSH2 0xCC3 DUP2 PUSH2 0x1427 JUMP JUMPDEST SWAP3 SWAP2 POP POP JUMP JUMPDEST PUSH1 0x0 DUP2 MLOAD SWAP1 POP PUSH2 0xCD8 DUP2 PUSH2 0x143E JUMP JUMPDEST SWAP3 SWAP2 POP POP JUMP JUMPDEST PUSH1 0x0 DUP1 DUP4 PUSH1 0x1F DUP5 ADD SLT PUSH2 0xCF0 JUMPI PUSH1 0x0 DUP1 REVERT JUMPDEST DUP3 CALLDATALOAD SWAP1 POP PUSH8 0xFFFFFFFFFFFFFFFF DUP2 GT ISZERO PUSH2 0xD09 JUMPI PUSH1 0x0 DUP1 REVERT JUMPDEST PUSH1 0x20 DUP4 ADD SWAP2 POP DUP4 PUSH1 0x1 DUP3 MUL DUP4 ADD GT ISZERO PUSH2 0xD21 JUMPI PUSH1 0x0 DUP1 REVERT JUMPDEST SWAP3 POP SWAP3 SWAP1 POP JUMP JUMPDEST PUSH1 0x0 DUP2 CALLDATALOAD SWAP1 POP PUSH2 0xD37 DUP2 PUSH2 0x1455 JUMP JUMPDEST SWAP3 SWAP2 POP POP JUMP JUMPDEST PUSH1 0x0 DUP2 MLOAD SWAP1 POP PUSH2 0xD4C DUP2 PUSH2 0x1455 JUMP JUMPDEST SWAP3 SWAP2 POP POP JUMP JUMPDEST PUSH1 0x0 PUSH1 0x20 DUP3 DUP5 SUB SLT ISZERO PUSH2 0xD64 JUMPI PUSH1 0x0 DUP1 REVERT JUMPDEST PUSH1 0x0 PUSH2 0xD72 DUP5 DUP3 DUP6 ADD PUSH2 0xCB4 JUMP JUMPDEST SWAP2 POP POP SWAP3 SWAP2 POP POP JUMP JUMPDEST PUSH1 0x0 DUP1 PUSH1 0x0 DUP1 PUSH1 0x0 PUSH1 0x80 DUP7 DUP9 SUB SLT ISZERO PUSH2 0xD93 JUMPI PUSH1 0x0 DUP1 REVERT JUMPDEST PUSH1 0x0 PUSH2 0xDA1 DUP9 DUP3 DUP10 ADD PUSH2 0xCB4 JUMP JUMPDEST SWAP6 POP POP PUSH1 0x20 PUSH2 0xDB2 DUP9 DUP3 DUP10 ADD PUSH2 0xCB4 JUMP JUMPDEST SWAP5 POP POP PUSH1 0x40 PUSH2 0xDC3 DUP9 DUP3 DUP10 ADD PUSH2 0xD28 JUMP JUMPDEST SWAP4 POP POP PUSH1 0x60 DUP7 ADD CALLDATALOAD PUSH8 0xFFFFFFFFFFFFFFFF DUP2 GT ISZERO PUSH2 0xDE0 JUMPI PUSH1 0x0 DUP1 REVERT JUMPDEST PUSH2 0xDEC DUP9 DUP3 DUP10 ADD PUSH2 0xCDE JUMP JUMPDEST SWAP3 POP SWAP3 POP POP SWAP3 SWAP6 POP SWAP3 SWAP6 SWAP1 SWAP4 POP JUMP JUMPDEST PUSH1 0x0 PUSH1 0x20 DUP3 DUP5 SUB SLT ISZERO PUSH2 0xE0D JUMPI PUSH1 0x0 DUP1 REVERT JUMPDEST PUSH1 0x0 PUSH2 0xE1B DUP5 DUP3 DUP6 ADD PUSH2 0xCC9 JUMP JUMPDEST SWAP2 POP POP SWAP3 SWAP2 POP POP JUMP JUMPDEST PUSH1 0x0 PUSH1 0x20 DUP3 DUP5 SUB SLT ISZERO PUSH2 0xE36 JUMPI PUSH1 0x0 DUP1 REVERT JUMPDEST PUSH1 0x0 PUSH2 0xE44 DUP5 DUP3 DUP6 ADD PUSH2 0xD28 JUMP JUMPDEST SWAP2 POP POP SWAP3 SWAP2 POP POP JUMP JUMPDEST PUSH1 0x0 PUSH1 0x20 DUP3 DUP5 SUB SLT ISZERO PUSH2 0xE5F JUMPI PUSH1 0x0 DUP1 REVERT JUMPDEST PUSH1 0x0 PUSH2 0xE6D DUP5 DUP3 DUP6 ADD PUSH2 0xD3D JUMP JUMPDEST SWAP2 POP POP SWAP3 SWAP2 POP POP JUMP JUMPDEST PUSH2 0xE7F DUP2 PUSH2 0x129A JUMP JUMPDEST DUP3 MSTORE POP POP JUMP JUMPDEST PUSH2 0xE8E DUP2 PUSH2 0x12B8 JUMP JUMPDEST DUP3 MSTORE POP POP JUMP JUMPDEST PUSH2 0xE9D DUP2 PUSH2 0x130E JUMP JUMPDEST DUP3 MSTORE POP POP JUMP JUMPDEST PUSH2 0xEAC DUP2 PUSH2 0x1332 JUMP JUMPDEST DUP3 MSTORE POP POP JUMP JUMPDEST PUSH1 0x0 PUSH2 0xEBF PUSH1 0x11 DUP4 PUSH2 0x1174 JUMP JUMPDEST SWAP2 POP PUSH32 0x4E6F7468696E6720746F2072656465656D000000000000000000000000000000 PUSH1 0x0 DUP4 ADD MSTORE PUSH1 0x20 DUP3 ADD SWAP1 POP SWAP2 SWAP1 POP JUMP JUMPDEST PUSH1 0x0 PUSH2 0xEFF PUSH1 0x14 DUP4 PUSH2 0x1174 JUMP JUMPDEST SWAP2 POP PUSH32 0x546F6B656E206973206E6F74207374616B65642E000000000000000000000000 PUSH1 0x0 DUP4 ADD MSTORE PUSH1 0x20 DUP3 ADD SWAP1 POP SWAP2 SWAP1 POP JUMP JUMPDEST PUSH1 0x0 PUSH2 0xF3F PUSH1 0x21 DUP4 PUSH2 0x1174 JUMP JUMPDEST SWAP2 POP PUSH32 0x436865636B20746865207265776172642077616C6C657427732062616C616E63 PUSH1 0x0 DUP4 ADD MSTORE PUSH32 0x6500000000000000000000000000000000000000000000000000000000000000 PUSH1 0x20 DUP4 ADD MSTORE PUSH1 0x40 DUP3 ADD SWAP1 POP SWAP2 SWAP1 POP JUMP JUMPDEST PUSH1 0x0 PUSH2 0xFA5 PUSH1 0x23 DUP4 PUSH2 0x1174 JUMP JUMPDEST SWAP2 POP PUSH32 0x436865636B20746865207265776172642077616C6C6574277320616C6C6F7761 PUSH1 0x0 DUP4 ADD MSTORE PUSH32 0x6E63650000000000000000000000000000000000000000000000000000000000 PUSH1 0x20 DUP4 ADD MSTORE PUSH1 0x40 DUP3 ADD SWAP1 POP SWAP2 SWAP1 POP JUMP JUMPDEST PUSH2 0x1007 DUP2 PUSH2 0x1304 JUMP JUMPDEST DUP3 MSTORE POP POP JUMP JUMPDEST PUSH1 0x0 PUSH1 0x20 DUP3 ADD SWAP1 POP PUSH2 0x1022 PUSH1 0x0 DUP4 ADD DUP5 PUSH2 0xE76 JUMP JUMPDEST SWAP3 SWAP2 POP POP JUMP JUMPDEST PUSH1 0x0 PUSH1 0x40 DUP3 ADD SWAP1 POP PUSH2 0x103D PUSH1 0x0 DUP4 ADD DUP6 PUSH2 0xE76 JUMP JUMPDEST PUSH2 0x104A PUSH1 0x20 DUP4 ADD DUP5 PUSH2 0xE76 JUMP JUMPDEST SWAP4 SWAP3 POP POP POP JUMP JUMPDEST PUSH1 0x0 PUSH1 0x60 DUP3 ADD SWAP1 POP PUSH2 0x1066 PUSH1 0x0 DUP4 ADD DUP7 PUSH2 0xE76 JUMP JUMPDEST PUSH2 0x1073 PUSH1 0x20 DUP4 ADD DUP6 PUSH2 0xE76 JUMP JUMPDEST PUSH2 0x1080 PUSH1 0x40 DUP4 ADD DUP5 PUSH2 0xFFE JUMP JUMPDEST SWAP5 SWAP4 POP POP POP POP JUMP JUMPDEST PUSH1 0x0 PUSH1 0x20 DUP3 ADD SWAP1 POP PUSH2 0x109D PUSH1 0x0 DUP4 ADD DUP5 PUSH2 0xE85 JUMP JUMPDEST SWAP3 SWAP2 POP POP JUMP JUMPDEST PUSH1 0x0 PUSH1 0x20 DUP3 ADD SWAP1 POP PUSH2 0x10B8 PUSH1 0x0 DUP4 ADD DUP5 PUSH2 0xE94 JUMP JUMPDEST SWAP3 SWAP2 POP POP JUMP JUMPDEST PUSH1 0x0 PUSH1 0x20 DUP3 ADD SWAP1 POP PUSH2 0x10D3 PUSH1 0x0 DUP4 ADD DUP5 PUSH2 0xEA3 JUMP JUMPDEST SWAP3 SWAP2 POP POP JUMP JUMPDEST PUSH1 0x0 PUSH1 0x20 DUP3 ADD SWAP1 POP DUP2 DUP2 SUB PUSH1 0x0 DUP4 ADD MSTORE PUSH2 0x10F2 DUP2 PUSH2 0xEB2 JUMP JUMPDEST SWAP1 POP SWAP2 SWAP1 POP JUMP JUMPDEST PUSH1 0x0 PUSH1 0x20 DUP3 ADD SWAP1 POP DUP2 DUP2 SUB PUSH1 0x0 DUP4 ADD MSTORE PUSH2 0x1112 DUP2 PUSH2 0xEF2 JUMP JUMPDEST SWAP1 POP SWAP2 SWAP1 POP JUMP JUMPDEST PUSH1 0x0 PUSH1 0x20 DUP3 ADD SWAP1 POP DUP2 DUP2 SUB PUSH1 0x0 DUP4 ADD MSTORE PUSH2 0x1132 DUP2 PUSH2 0xF32 JUMP JUMPDEST SWAP1 POP SWAP2 SWAP1 POP JUMP JUMPDEST PUSH1 0x0 PUSH1 0x20 DUP3 ADD SWAP1 POP DUP2 DUP2 SUB PUSH1 0x0 DUP4 ADD MSTORE PUSH2 0x1152 DUP2 PUSH2 0xF98 JUMP JUMPDEST SWAP1 POP SWAP2 SWAP1 POP JUMP JUMPDEST PUSH1 0x0 PUSH1 0x20 DUP3 ADD SWAP1 POP PUSH2 0x116E PUSH1 0x0 DUP4 ADD DUP5 PUSH2 0xFFE JUMP JUMPDEST SWAP3 SWAP2 POP POP JUMP JUMPDEST PUSH1 0x0 DUP3 DUP3 MSTORE PUSH1 0x20 DUP3 ADD SWAP1 POP SWAP3 SWAP2 POP POP JUMP JUMPDEST PUSH1 0x0 PUSH2 0x1190 DUP3 PUSH2 0x1304 JUMP JUMPDEST SWAP2 POP PUSH2 0x119B DUP4 PUSH2 0x1304 JUMP JUMPDEST SWAP3 POP DUP3 PUSH32 0xFFFFFFFFFFFFFFFFFFFFFFFFFFFFFFFFFFFFFFFFFFFFFFFFFFFFFFFFFFFFFFFF SUB DUP3 GT ISZERO PUSH2 0x11D0 JUMPI PUSH2 0x11CF PUSH2 0x13C9 JUMP JUMPDEST JUMPDEST DUP3 DUP3 ADD SWAP1 POP SWAP3 SWAP2 POP POP JUMP JUMPDEST PUSH1 0x0 PUSH2 0x11E6 DUP3 PUSH2 0x1304 JUMP JUMPDEST SWAP2 POP PUSH2 0x11F1 DUP4 PUSH2 0x1304 JUMP JUMPDEST SWAP3 POP DUP3 PUSH2 0x1201 JUMPI PUSH2 0x1200 PUSH2 0x13F8 JUMP JUMPDEST JUMPDEST DUP3 DUP3 DIV SWAP1 POP SWAP3 SWAP2 POP POP JUMP JUMPDEST PUSH1 0x0 PUSH2 0x1217 DUP3 PUSH2 0x1304 JUMP JUMPDEST SWAP2 POP PUSH2 0x1222 DUP4 PUSH2 0x1304 JUMP JUMPDEST SWAP3 POP DUP2 PUSH32 0xFFFFFFFFFFFFFFFFFFFFFFFFFFFFFFFFFFFFFFFFFFFFFFFFFFFFFFFFFFFFFFFF DIV DUP4 GT DUP3 ISZERO ISZERO AND ISZERO PUSH2 0x125B JUMPI PUSH2 0x125A PUSH2 0x13C9 JUMP JUMPDEST JUMPDEST DUP3 DUP3 MUL SWAP1 POP SWAP3 SWAP2 POP POP JUMP JUMPDEST PUSH1 0x0 PUSH2 0x1271 DUP3 PUSH2 0x1304 JUMP JUMPDEST SWAP2 POP PUSH2 0x127C DUP4 PUSH2 0x1304 JUMP JUMPDEST SWAP3 POP DUP3 DUP3 LT ISZERO PUSH2 0x128F JUMPI PUSH2 0x128E PUSH2 0x13C9 JUMP JUMPDEST JUMPDEST DUP3 DUP3 SUB SWAP1 POP SWAP3 SWAP2 POP POP JUMP JUMPDEST PUSH1 0x0 PUSH2 0x12A5 DUP3 PUSH2 0x12E4 JUMP JUMPDEST SWAP1 POP SWAP2 SWAP1 POP JUMP JUMPDEST PUSH1 0x0 DUP2 ISZERO ISZERO SWAP1 POP SWAP2 SWAP1 POP JUMP JUMPDEST PUSH1 0x0 PUSH32 0xFFFFFFFF00000000000000000000000000000000000000000000000000000000 DUP3 AND SWAP1 POP SWAP2 SWAP1 POP JUMP JUMPDEST PUSH1 0x0 PUSH20 0xFFFFFFFFFFFFFFFFFFFFFFFFFFFFFFFFFFFFFFFF DUP3 AND SWAP1 POP SWAP2 SWAP1 POP JUMP JUMPDEST PUSH1 0x0 DUP2 SWAP1 POP SWAP2 SWAP1 POP JUMP JUMPDEST PUSH1 0x0 PUSH2 0x1319 DUP3 PUSH2 0x1320 JUMP JUMPDEST SWAP1 POP SWAP2 SWAP1 POP JUMP JUMPDEST PUSH1 0x0 PUSH2 0x132B DUP3 PUSH2 0x12E4 JUMP JUMPDEST SWAP1 POP SWAP2 SWAP1 POP JUMP JUMPDEST PUSH1 0x0 PUSH2 0x133D DUP3 PUSH2 0x1344 JUMP JUMPDEST SWAP1 POP SWAP2 SWAP1 POP JUMP JUMPDEST PUSH1 0x0 PUSH2 0x134F DUP3 PUSH2 0x12E4 JUMP JUMPDEST SWAP1 POP SWAP2 SWAP1 POP JUMP JUMPDEST PUSH1 0x0 PUSH2 0x1361 DUP3 PUSH2 0x1304 JUMP JUMPDEST SWAP2 POP PUSH1 0x0 DUP3 EQ ISZERO PUSH2 0x1375 JUMPI PUSH2 0x1374 PUSH2 0x13C9 JUMP JUMPDEST JUMPDEST PUSH1 0x1 DUP3 SUB SWAP1 POP SWAP2 SWAP1 POP JUMP JUMPDEST PUSH1 0x0 PUSH2 0x138B DUP3 PUSH2 0x1304 JUMP JUMPDEST SWAP2 POP PUSH32 0xFFFFFFFFFFFFFFFFFFFFFFFFFFFFFFFFFFFFFFFFFFFFFFFFFFFFFFFFFFFFFFFF DUP3 EQ ISZERO PUSH2 0x13BE JUMPI PUSH2 0x13BD PUSH2 0x13C9 JUMP JUMPDEST JUMPDEST PUSH1 0x1 DUP3 ADD SWAP1 POP SWAP2 SWAP1 POP JUMP JUMPDEST PUSH32 0x4E487B7100000000000000000000000000000000000000000000000000000000 PUSH1 0x0 MSTORE PUSH1 0x11 PUSH1 0x4 MSTORE PUSH1 0x24 PUSH1 0x0 REVERT JUMPDEST PUSH32 0x4E487B7100000000000000000000000000000000000000000000000000000000 PUSH1 0x0 MSTORE PUSH1 0x12 PUSH1 0x4 MSTORE PUSH1 0x24 PUSH1 0x0 REVERT JUMPDEST PUSH2 0x1430 DUP2 PUSH2 0x129A JUMP JUMPDEST DUP2 EQ PUSH2 0x143B JUMPI PUSH1 0x0 DUP1 REVERT JUMPDEST POP JUMP JUMPDEST PUSH2 0x1447 DUP2 PUSH2 0x12AC JUMP JUMPDEST DUP2 EQ PUSH2 0x1452 JUMPI PUSH1 0x0 DUP1 REVERT JUMPDEST POP JUMP JUMPDEST PUSH2 0x145E DUP2 PUSH2 0x1304 JUMP JUMPDEST DUP2 EQ PUSH2 0x1469 JUMPI PUSH1 0x0 DUP1 REVERT JUMPDEST POP JUMP INVALID LOG2 PUSH5 0x6970667358 0x22 SLT KECCAK256 CODESIZE PUSH6 0x43A7063C5EA NOT SWAP9 SELFDESTRUCT SWAP1 PUSH24 0x8C50CB4F6F68298BF256FC5DFF4D8BBAE24D1464736F6C63 NUMBER STOP ADDMOD STOP STOP CALLER "
				},
				"gasEstimates": {
					"creation": {
						"codeDepositCost": "1056400",
						"executionCost": "infinite",
						"totalCost": "infinite"
					},
					"external": {
						"available(address)": "infinite",
						"balanceOf(address)": "1536",
						"lastUpdateTime(address)": "1559",
						"nft()": "1254",
						"onERC721Received(address,address,uint256,bytes)": "infinite",
						"redeem()": "infinite",
						"rewardPerTokenPerDay()": "1196",
						"rewardToken()": "1345",
						"rewardWallet()": "1324",
						"stake(uint256)": "infinite",
						"withdraw(uint256)": "infinite"
					}
				},
				"methodIdentifiers": {
					"available(address)": "10098ad5",
					"balanceOf(address)": "70a08231",
					"lastUpdateTime(address)": "2ce9aead",
					"nft()": "47ccca02",
					"onERC721Received(address,address,uint256,bytes)": "150b7a02",
					"redeem()": "be040fb0",
					"rewardPerTokenPerDay()": "2d6a1fa6",
					"rewardToken()": "f7c618c1",
					"rewardWallet()": "fb75b2c7",
					"stake(uint256)": "a694fc3a",
					"withdraw(uint256)": "2e1a7d4d"
				}
			},
			"storageLayout": {
				"storage": [
					{
						"astId": 259,
						"contract": "nft-staking-with-infinite-rewards/nft-staking-with-infinite-rewards.sol:NFTStakingPerToken",
						"label": "nft",
						"offset": 0,
						"slot": "0",
						"type": "t_contract(IERC721)193"
					},
					{
						"astId": 262,
						"contract": "nft-staking-with-infinite-rewards/nft-staking-with-infinite-rewards.sol:NFTStakingPerToken",
						"label": "rewardToken",
						"offset": 0,
						"slot": "1",
						"type": "t_contract(IERC20)77"
					},
					{
						"astId": 264,
						"contract": "nft-staking-with-infinite-rewards/nft-staking-with-infinite-rewards.sol:NFTStakingPerToken",
						"label": "rewardWallet",
						"offset": 0,
						"slot": "2",
						"type": "t_address"
					},
					{
						"astId": 266,
						"contract": "nft-staking-with-infinite-rewards/nft-staking-with-infinite-rewards.sol:NFTStakingPerToken",
						"label": "rewardPerTokenPerDay",
						"offset": 0,
						"slot": "3",
						"type": "t_uint256"
					},
					{
						"astId": 270,
						"contract": "nft-staking-with-infinite-rewards/nft-staking-with-infinite-rewards.sol:NFTStakingPerToken",
						"label": "stakedTokens",
						"offset": 0,
						"slot": "4",
						"type": "t_mapping(t_uint256,t_address)"
					},
					{
						"astId": 274,
						"contract": "nft-staking-with-infinite-rewards/nft-staking-with-infinite-rewards.sol:NFTStakingPerToken",
						"label": "balanceOf",
						"offset": 0,
						"slot": "5",
						"type": "t_mapping(t_address,t_uint256)"
					},
					{
						"astId": 278,
						"contract": "nft-staking-with-infinite-rewards/nft-staking-with-infinite-rewards.sol:NFTStakingPerToken",
						"label": "lastUpdateTime",
						"offset": 0,
						"slot": "6",
						"type": "t_mapping(t_address,t_uint256)"
					},
					{
						"astId": 282,
						"contract": "nft-staking-with-infinite-rewards/nft-staking-with-infinite-rewards.sol:NFTStakingPerToken",
						"label": "reward",
						"offset": 0,
						"slot": "7",
						"type": "t_mapping(t_address,t_uint256)"
					}
				],
				"types": {
					"t_address": {
						"encoding": "inplace",
						"label": "address",
						"numberOfBytes": "20"
					},
					"t_contract(IERC20)77": {
						"encoding": "inplace",
						"label": "contract IERC20",
						"numberOfBytes": "20"
					},
					"t_contract(IERC721)193": {
						"encoding": "inplace",
						"label": "contract IERC721",
						"numberOfBytes": "20"
					},
					"t_mapping(t_address,t_uint256)": {
						"encoding": "mapping",
						"key": "t_address",
						"label": "mapping(address => uint256)",
						"numberOfBytes": "32",
						"value": "t_uint256"
					},
					"t_mapping(t_uint256,t_address)": {
						"encoding": "mapping",
						"key": "t_uint256",
						"label": "mapping(uint256 => address)",
						"numberOfBytes": "32",
						"value": "t_address"
					},
					"t_uint256": {
						"encoding": "inplace",
						"label": "uint256",
						"numberOfBytes": "32"
					}
				}
			},
			"userdoc": {
				"kind": "user",
				"methods": {},
				"notice": "Staking, NFT, ERC721",
				"version": 1
			}
		}
	}
}